S01800006275696C642F6D6963617A2F6D61696E2E73726563E5
S11300000C9468000C941D090C9427090C94310974
S11300100C943B090C9445090C944F090C94760DEF
S11300200C9459090C9487000C9487000C94A01527
S11300300C94DE120C94E7080C94FD080C94650AE9
S11300400C94D6080C9412150C9487000C94870019
S11300500C9487000C9463090C9487000C9487001B
S11300600C94F2080C9487000C9487000C9487007D
S11300700C9487000C9487000C9487000C948700E0
S11300800C9487000C9487000C94870080213A22FA
S113009074229D22B722BD22F722A823AB23AE23CC
S11300A0B123B4230C241E243E24872493249624B1
S11300B09A249D24A324B424C524DD247221F92583
S11300C0072678212226E126CB2700081C181410C5
S11300D011241FBECFEFD0E1DEBFCDBF11E0A0E001
S11300E0B1E0ECE0FAE500E00BBF02C007900D922E
S11300F0A631B107D9F717E0A6E1B1E001C01D921E
S1130100A238B107E1F70E94DB280C94052D0C946A
S113011000008FB7F894992708958FBF0895AC0114
S1130120E8E1F3E080E090E09C01858180FF05C078
S1130130808191818417950741F0C90101963B960E
S11301408A30910589F72FEF30E0C90108950E94A4
S11301508F008F3F91F099272BE030E0829FF001D0
S1130160839FF00D929FF00D1124E85EFC4F858172
S113017081FF03C08781908508958FEF9FEF0895D5
S11301800E948F008F3F19F481E090E00895282F9A
S113019033278BE090E0289FF001299FF00D389FD2
S11301A0F00D1124E85EFC4F85818860858380E032
S11301B090E008952F923F924F925F926F927F92B8
S11301C08F929F92AF92BF92CF92DF92EF92FF9263
S11301D00F931F93CF93DF93CDB7DEB729970FB655
S11301E0F894DEBF0FBECDBF6FB76983F89420903B
S11301F0AF023090B0024090B1025090B202662437
S1130200772488242EE4A22E93E8B92ECC24DD246E
S1130210EE24FF2400E010E0222D332D442D552D33
S1130220662D772D882D90E00E94C92A2A833B836E
S11302304C835D836E837F8388879987822E932E78
S1130240A42EB52E2401350100E20E94C72BA22E54
S1130250B32EC42ED52EA3019201569547953795FA
S113026027952A0D3B1D4C1D5D1D57FF05C05F776B
S11302702F5F3F4F4F4F5F4F2093AF023093B00239
S11302804093B1025093B202E9818E2F99278FBF18
S1130290CA01B90129960FB6F894DEBF0FBECDBFCF
S11302A0DF91CF911F910F91FF90EF90DF90CF904E
S11302B0BF90AF909F908F907F906F905F904F9082
S11302C03F902F9008950E94DA00DC01CB0108953D
S11302D0282F9FB7F894E82FFF27E552FE4F80811F
S11302E08F3F81F4E0916807E21771F40BC020930B
S11302F0540704C0FF27E552FE4F2083209368076C
S113030020E007C025E005C0809154078F3F91F796
S1130310EECF892F99278FBF822F9927089584E0E4
S11303200E9468019927089585E00E946801992731
S113033008958FB7F8949927609316018FBF82E0D0
S11303400E946801089586E10E9468019927089532
S11303508EE00E946801992708958BE10E9468014C
S113036099270895EF920F931F93AE2D99E0899FDB
S1130370F0011124E857FC4F408351836283738357
S11303800483158326833783A17080858E7F8A2B0F
S1130390826080878BE00E9468011F910F91EF902B
S11303A008958CE10E946801992708957FB7F89415
S11303B062B72091B5013091B6014091B7015091D7
S11303C0B80106B601FE0FC081B792B7280F311DE0
S11303D0411D511D2F5F3F4F4F4F5F4F290F311D5F
S11303E0411D511D04C0260F311D411D511D872F74
S11303F099278FBFCA01B9010895AF92BF92CF92D6
S1130400DF92EF92FF920F931F93F82E5A016B0124
S11304100E94D601AB01BC0131E0E32E96018501B7
S11304208F2D0E94B2011F910F91FF90EF90DF90EA
S1130430CF90BF90AF9008959C016E5F6D3118F01E
S113044080E090E008950C9611F0C9010E9608958D
S1130450282F9FB7F894662349F0E82FFF27E75A1F
S1130460FB4F8081882311F021E006C0E22FFF2793
S1130470E75AFB4F608320E0892F99278FBF822F93
S113048099270895E82F8FB7F894282F332790E001
S1130490FF27E75AFB4F8081861709F491E02FBFAD
S11304A0892F9927089560E080E00E9442029927ED
S11304B00895682F81E00E944202992708958823B5
S11304C011F06E9A08956E980895882311F06F9A2A
S11304D008956F98089580E00E945F02BA9ABB98CD
S11304E0B99A6C9A80E00E946502709A6B986A9837
S11304F0689881E00E945F0208950F931F93CF9341
S1130500DF93182F8FB7F894C82FDD270C2F61E0E5
S113051080E00E942802882321F0CFBF85E090E08C
S113052024C0809105018823A1F480911B018230AD
S113053081F409C082E080931B01109205010E949E
S11305406B02B89AC0981093020180E00FBF9927FC
S11305500CC080911B01882369F38FB7F894992705
S1130560109259048FBF81E0F1CFDF91CF911F9199
S11305700F9108951F93182F81E00E945F021FB905
S1130580779BFECF8FB199271F9108958F929F92E9
S1130590AF92BF92CF92DF92EF92FF920F931F938D
S11305A0CF93DF938FB7F8949927C0906307D090C7
S11305B064078090D0039090D103C0910803D09138
S11305C0090320917D0130917E014AE0A42EB12CD3
S11305D0AC0EBD1E2A153B0508F459018FBF7401EA
S11305E0EC0EFD1E86010C0F1D1F14C0C114D10496
S11305F019F0F801808101C080E00E94BA028114E0
S1130600910411F0F701808321960894E11CF11CF8
S11306100F5F1F4FC5010197C817D90738F381E051
S11306200E9465029FB7F894C114D10431F0CC0E36
S1130630DD1EF60180818FB901C01FB8D093090374
S1130640C0930803892F99278FBF80E090E0DF9142
S1130650CF911F910F91FF90EF90DF90CF90BF90BB
S1130660AF909F908F9008952FB7F89433275093AD
S11306707E0140937D019093640780936307709398
S1130680D1036093D00310920903109208032FBF83
S1130690452B29F08FB10E94C6029927089587E05F
S11306A00E94680180E090E008958FB7F89499273C
S11306B010925B048FBF08950F931F93CF93DF9322
S11306C0EC01892BE9F02091F5063091F6068FEFC5
S11306D02F3F3807A9F08091BA01813019F41982AB
S11306E018820BC00091F7061091F806C9010E9408
S11306F0A700080F191F1983088380E090E002C047
S113070081E090E0DF91CF911F910F910895CF92F6
S1130710DF92FF920F931F93CF93DF936C01F090BE
S1130720B9016091060370E08C01005F1F4F2CC07B
S1130730D6011C96462F43705527E6012889332796
S1130740322F2227F80181819927282B392BFA018E
S1130750EE0FFF1FEE0FFF1FE40FF51FE050FE4FDB
S1130760808191812817390769F4ED019E81828186
S1130770891741F499818481891721F49F818381A8
S1130780891721F07F5F6F5F7F1591F6872F992777
S1130790DF91CF911F910F91FF90DF90CF9008953B
S11307A080913301E82FFF27EE0FFF1FE552F94F29
S11307B00190F081E02D20913501222351F08F5FCB
S11307C0809333018C3011F4109233012150209323
S11307D03501CF010895AC01209103032C3018F0AA
S11307E081E090E008958091B402682F620F712D2A
S11307F0711DFB016C30710508F03C97EE0FFF1F73
S1130800E65CFB4F518340832F5F2093030380E01A
S113081090E00895AC01209102032C3018F081E09F
S113082090E0089580916007682F620F712D711D0B
S1130830FB016C30710508F03C97EE0FFF1FE65981
S1130840F84F518340832F5F2093020380E090E0B0
S113085008959C01685F6D3118F080E090E0089580
S11308600C9611F0C90144960895FC0180899927DA
S1130870982F882721893327822B932B0895FC01F5
S113088027813085C901A3E0880F991FAA95E1F754
S1130890820F931F860F971F6AE070E00E94852CD9
S11308A0708767830895FC0161859285662329F426
S11308B08AE0989FB001112409C077278AE0989FA5
S11308C0C00111240E94992C11861286CF010E9426
S11308D03F04089580E88093CE0110927402109230
S11308E05E071092530710921A020895109218018D
S11308F010921701DE98DD98DE9A80E090E008956A
S1130900AF92BF92CF92DF92EF92FF920F931F9319
S1130910F82E5A016B010E94D601AB01BC01EE24F2
S1130920960185018F2D0E94B2011F910F91FF90B6
S1130930EF90DF90CF90BF90AF900895982F969549
S113094096959695E6E1F3E0E90FF11D877021E0B5
S113095030E002C0220F331F8A95E2F780818223A0
S1130960992708959FB7F894292F3327422F909100
S11309700C01981741F480912301833021F42FBF97
S113098081E090E008954FBF80E090E0089580E01A
S11309900E94B2049927089581E00E94B204992725
S11309A00895982F969596959695E9EDF1E0E90FBF
S11309B0F11D877021E030E002C0220F331F8A95B9
S11309C0E2F7808182239927089580915D07882327
S11309D019F02FE170E002C078E021E0622FEFB758
S11309E0F894809118028E7F8093180287B1982F13
S11309F09F71829586958695837019F080E090E0CA
S1130A0012C0822F8850863118F081E090E00BC02C
S1130A1040E050E03327892F99272817390711F42C
S1130A2041E050E0CA01982F9170990F809118020B
S1130A308178262F2F71422F440F440F892B842B4A
S1130A4080931802332727B9783059F580915507D8
S1130A509091560721E08638920718F087E090E0DD
S1130A601FC0833C910518F086E090E019C08136E0
S1130A70910518F085E090E013C08033910518F0DB
S1130A8084E090E00DC08831910518F083E090E097
S1130A9007C00C9718F082E090E002C080E090E07C
S1130AA0782F7770887D872B886D992786B98E2F4C
S1130AB099278FBF0895982F969596959695E7E870
S1130AC0F3E0E90FF11D877021E030E002C0220F4E
S1130AD0331F8A95E2F780818223992708950F9323
S1130AE01F93CF93DF93182F8FB7F894282F3327B2
S1130AF0022F80912301882331F581E08093230123
S1130B00109367042FBF8FB7F894C82FDD279C2F4D
S1130B1080910C018230A9F480912301813021F469
S1130B208DE00E94680109C0823059F48091670405
S1130B3080930C0183E080932301CFBF80E090E099
S1130B401FC09FBFFBCF812F0E945B05882319F034
S1130B5085E090E014C0E12FE695E695E695FF2741
S1130B60E957FC4F177081E090E002C0880F991F8D
S1130B701A95E2F72081282B208380E090E00FBFB4
S1130B80DF91CF911F910F91089580E00E946F052E
S1130B909927089581E00E946F05992708954FB71A
S1130BA0F8945527FC01B3E0F695E795BA95E1F77B
S1130BB0EA5FFB4F8770907021E030E002C0220FA3
S1130BC0331F8A95E2F78081822B80834FBF08957B
S1130BD08FB7F89460911403709115032CB53DB54B
S1130BE006B602FE04C06F5F7F4F2CB53DB5992752
S1130BF08FBF88279927CB01772766274427552756
S1130C00622B732B842B952B0895EF92FF920F93F5
S1130C101F930E94E8057B018C012091F002309122
S1130C20F1024091F2025091F3028091B502909149
S1130C30B602A091B702B091B802820F931FA41F0D
S1130C40B51FE216F3060407150730F08217930761
S1130C50A407B50758F005C082179307A407B50782
S1130C60E0F5E816F9060A071B07B8F59C01AD0183
S1130C702E193F09400B510B213060E8360760E024
S1130C80460760E0560768F180E090E8A0E0B0E035
S1130C90E80EF91E0A1F1B1FE092F002F092F10207
S1130CA00093F2021093F30280E090E8AFEFBFEFFD
S1130CB0E80EF91E0A1F1B1F2050304840405040C8
S1130CC02093B5023093B6024093B7025093B80212
S1130CD020E030E840E050E014C020E030E040E0A4
S1130CE050E08093F0029093F102A093F202B0934B
S1130CF0F3021092B5021092B6021092B70210924B
S1130D00B802A901B7012CB53DB5C9018E199F09D7
S1130D1003968417950720F0B9016D5F7F4F02C0D9
S1130D20640F751F6115710511F461E070E0615085
S1130D3070407BBD6ABD80E186BF87B7806187BF95
S1130D401F910F91FF90EF9008950F931F930FB78A
S1130D50F89411276093F0027093F1028093F202E9
S1130D609093F3022093B5023093B6024093B702F6
S1130D705093B8020E9405060FBF1F910F9108956A
S1130D80DF92EF92FF920F931F938FB7F894282F5F
S1130D903327D22E91B782B746B7981711F041FF87
S1130DA002C02FBF68C0809107038823D1F10E943D
S1130DB0D601E0905504F090560400915704109128
S1130DC058042091CA013091CB014091CC0150913B
S1130DD0CD016E197F09800B910B6217730784078D
S1130DE0950728F01092070386EE71E01CC02E0DC3
S1130DF03F1D401F511F8091B5019091B601A091F4
S1130E00B701B091B801281B390B4A0B5B0B273E85
S1130E1031054105510528F4822F223018F482E06F
S1130E2001C086EE70E0682F615000B601FCFDCF72
S1130E3082B7681709F46F5F2091B5013091B6014C
S1130E404091B7015091B801DA01C9010196A11D81
S1130E50B11D860F911DA11DB11D82179307A40713
S1130E60B50710F4622F609561BFDFBE772319F0D8
S1130E708AE00E9468011F910F91FF90EF90DF902C
S1130E800895AFB7F894BB27E1E0E09307036093BC
S1130E9055047093560480935704909358042093F8
S1130EA0CA013093CB014093CC015093CD01AFBF25
S1130EB00E94C00608959BE0899FF0011124E85E1A
S1130EC0FC4F7183608312821382148285E08583D0
S1130ED016821086178208954F925F927F928F92A6
S1130EE09F92AF92BF92CF92DF92EF92FF920F93B5
S1130EF01F93CF93DF93CDB7DEB722970FB6F89445
S1130F00DEBF0FBECDBF782EC62E882E99248BE06F
S1130F1090E0889EF001899EF00D989EF00D1124BA
S1130F20E85EFC4F858182FF03C062838B7F8583EB
S1130F308281DC2CD81AC28283818F5F8383DD2077
S1130F4021F084818D0D8150848383812481820FDB
S1130F50912D911D039724F422E02D1508F050C023
S1130F60A080B18058E1452E53E0552EF2018081D6
S1130F7091818A159B05D1F5858180FF37C08260F8
S1130F80858363811481160F133008F413E0F20192
S1130F90068189E0089F7001112477278827992703
S1130FA02AEF30E040E050E00E945A2C212F3327F2
S1130FB0442755270E94AC2CC701820F911D6AE07B
S1130FC070E00E94992CF2016683138214826623D6
S1130FD041F0772784EC99E00E94992C6B3F7105CE
S1130FE010F06FEF7FEFC2010E943F042BE030E06E
S1130FF0420E531E36E8431633E0530609F0B6CFCB
S11310008AE08D15B8F48BE090E0889EF001899E0B
S1131010F00D989EF00D1124E85EFC4FFA83E983ED
S113102060817181872D0E945B07E981FA81C28208
S113103081E0838322960FB6F894DEBF0FBECDBF46
S1131040DF91CF911F910F91FF90EF90DF90CF90A0
S1131050BF90AF909F908F907F905F904F90089536
S113106080E090E0EDE1F3E09C01808180FF08C026
S1131070C90101963B968A309105B1F72FEF30E014
S1131080C9010895982FAFEF60E070E040E050E0B0
S1131090EDE1F3E08081282F332720FF0BC021FFEF
S11310A009C023FD07C0228133812617370710F0BA
S11310B0A42FB9014F5F5F4F3B964A30510551F75A
S11310C0892F99276817790718F48FEF90E008950E
S11310D08A2F99270895AC013091D8018FEF4F3FA3
S11310E0580711F020E012C0832F99270895E22FAA
S11310F0FF2763E0EE0FFF1F6A95E1F7E35EFD4F04
S1131100808191818417950719F02F5F231779F750
S1131110822F99270895FC018081448555274F70BB
S113112050709A01220F331F240F351F821B8F50DA
S1131130992708951F93CF93DF93162FC0E0D0E033
S11311406AE10E941C02FC0180818123811711F451
S1131150C1E0D0E0CE01DF91CF911F910895CF93EC
S1131160DF93FC0115A6DC019E96ED011B821A8219
S1131170198280E886A7DF91CF91089597B79F7D64
S113118097BF90E296BF882319F08EB5806402C0A1
S11311908EB58F7B8EBD87B7806287BF80E090E07D
S11311A0089581E00E94BE08992708951F920F9226
S11311B00FB60F9211248F9383B783BF00B600FC40
S11311C0FDCF8F910F900FBE0F901F9018957894BC
S11311D01F920F920FB60F9211240F900FBE0F9013
S11311E01F90189578941F920F920FB60F921124A6
S11311F00F900FBE0F901F90189578941F920F9226
S11312000FB60F9211242F933F938F939F932FB771
S1131210F8943327809114039091150301969093C9
S11312201503809314032FBF9F918F913F912F91AA
S11312300F900FBE0F901F9018951F920F920FB62C
S11312400F9211240F900FBE0F901F9018951F92AC
S11312500F920FB60F9211240F900FBE0F901F9094
S113126018951F920F920FB60F9211240F900FBE74
S11312700F901F9018951F920F920FB60F92112482
S11312800F900FBE0F901F9018951F920F920FB6DC
S11312900F9211240F900FBE0F901F9018951F925C
S11312A00F920FB60F9211240F900FBE0F901F9044
S11312B018951F920F920FB60F9211240F900FBE24
S11312C00F901F9018951F920F920FB60F92112432
S11312D02F933F934F935F936F937F938F939F933A
S11312E0AF93BF93EF93FF9344B155B178948FB705
S11312F0F894992720911802322F36953170217075
S11313008FBF2223D9F433988091FF02813021F0DA
S1131310823009F039C00AC0332351F050933904A4
S11313204093380487E10E9468012EC0332319F4E6
S11313300E94E50429C01092FF0226C08FB7F894DA
S113134099278FBF2FB7F894332786B1582F57703A
S1131350482F4072987D942B952B8074977B982B03
S113136090619F77892F992786B9887D842B852B57
S113137087738061992786B9887D842B852B877B29
S11313808069992786B92FBFFF91EF91BF91AF91E3
S11313909F918F917F916F915F914F913F912F9189
S11313A00F900FBE0F901F901895EF92FF920F931E
S11313B01F93CF93DF937C01442309F477C0EC019E
S11313C0088119818091B901843009F046C0C801AF
S11313D00E9487032091B901622F0E94792C492F22
S11313E09217D8F5992359F4809106039927019609
S11313F064E070E00E94992C8093060329C08091D8
S11314000603840F912D911D9C0123703070E90116
S1131410CC0FDD1FCC0FDD1FC20FD31F019664E07C
S113142070E00E94992CFC01EE0FFF1FEE0FFF1FCE
S1131430E80FF91FC050DE4FE050FE4F85E00190E9
S113144009928150E1F74F5F8091B9014817B8F2D2
S11314508091B90181508093B9014091B901809183
S11314600603840F912D911D83709070D8011C96F2
S1131470FC01EE0FFF1FEE0FFF1FE80FF91FE050F6
S1131480FE4FE80188899927982F882729893327CF
S1131490822B932B91838083ED018E8182838981BA
S11314A084838F8183834F5F4093B901F7018081E7
S11314B091810E94EB03C7010E940A04DF91CF913E
S11314C01F910F91FF90EF9008951F920F920FB606
S11314D00F9211242F933F934F935F936F937F93B6
S11314E08F939F93AF93BF93EF93FF9383B783BF80
S11314F000B600FCFDCF81B799270196AA27BB2728
S11315002091B5013091B6014091B7015091B801D5
S1131510280F391F4A1F5B1F2093B5013093B60172
S11315204093B7015093B80178940E94C006FF918C
S1131530EF91BF91AF919F918F917F916F915F9147
S11315404F913F912F910F900FBE0F901F901895C0
S11315500F931F93182F0FB7F89461E080E00E9457
S11315602802882371F510930201809105018823D4
S1131570A9F580911B01823089F586E00CC00E9498
S11315806B0280911B01882349F481E080931B0145
S113159010921B0288E00E9468012AC08091BB025D
S11315A08F3F31F5E0910401EE2311F11CC010923C
S11315B0030104C0FF27E554FD4F1082109204017B
S11315C017C081E090E002C0880F991F1A95E2F7D6
S11315D020911A01282B20931A010AC080911B0123
S11315E08823E1F6CCCF809103018F3F19F7DFCF39
S11315F0802F99278FBF80E090E01F910F9108956D
S11316001F9383E00E947D029927182F882319F0E5
S113161083E00E94A80A812F99271F910895EF92D1
S1131620FF920F931F93CF93DF93982F8FB7F89464
S1131630E82E80912301833009F045C080910C018C
S1131640891709F040C080918703882309F045C0B9
S11316503EC0EF2DE695E695E695FF274F2D5527DD
S1131660E957FC4F9A012770307081E090E002C086
S1131670880F991F2A95E2F78095208128232083DB
S1131680C093220111C02196C230D10511F4C0E0EB
S1131690D0E0FC2E8C2F0E945B058823D1F6C01766
S11316A0D10789F74FEF50E0409367048FEF8093A1
S11316B00C0181E0809323018DE00E946801EFBE5C
S11316C080E090E010C0EFBE81E090E00CC082E0CA
S11316D080930C0110922301F2CF80912201082FF4
S11316E01127E801D0CFDF91CF911F910F91FF9087
S11316F0EF9008952FB7F894332780911B028093BD
S1131700050182E080931B012FBF8091050188238E
S113171029F4B89AC09886E00E9468010895CF938E
S1131720DF93EC010E946B08282F8091D8012817C1
S1131730D1F0382F31503093D80113C0822F99271C
S113174063E0880F991F6A95E1F7DC01A35EBD4F42
S1131750FC01EB5DFD4F88E001900D928150E1F7B3
S11317602F5F231758F38091F5069091F6068C1796
S11317709D07A1F48FEF9FEF9093F6068093F506F3
S11317801092F8061092F7061092F9061092FA06D3
S113179081E080933B018DE10E946801DF91CF914C
S11317A008951F93CF93DF93EC01162F80911001BE
S11317B0882319F5CE010E946B08E82F8091D80187
S11317C0E81748F4FF2773E0EE0FFF1F7A95E1F75F
S11317D0E35EFD4F17838091FA06882311F01123ED
S11317E049F08091F5069091F6068C179D0729F42F
S11317F0112319F08DE10E946801DF91CF911F91AF
S11318000895AF92BF92CF92DF92EF92FF920F931F
S11318101F93282F33278BE090E0289FF001299F06
S1131820F00D389FF00D1124EE58FE4F8281938104
S1131830A481B5810097A105B10569F080819181EA
S1131840880F991F918380838150944020F080E019
S113185094E0918380838BE090E0289F5001299F3E
S1131860B00C389FB00C112482E791E0A80EB91E89
S1131870F50186819781A085B18582839383A483B2
S1131880B583C080D180EE24FF2469E0CC0CDD1C3C
S1131890EE1CFF1C6A95D1F70E94DA00DC01CB0133
S11318A0F50100811181B801762F6627770F0E9418
S11318B0852CAA27BB278C0D9D1DAE1DBF1D22277D
S11318C033274AE0000F111F221F331F4A95D1F717
S11318D0081B190B2A0B3B0B0683178320873187C0
S11318E02281338144815581280F391F4A1F5B1F90
S11318F022833383448355831F910F91FF90EF908C
S1131900DF90CF90BF90AF900895CF92DF92EF9287
S1131910FF920F931F93CF93DF938C01F62E6A01EE
S1131920E22E8FB7F894C82FDD2760E080E00E9494
S11319304202882321F0CFBF80E090E01EC0CFBFD9
S11319400F0D111D802F80680E94BA02F82E169583
S11319500795802F807C0E94BA020E2D0AC0EE2DBE
S1131960FF27E01BF109EC0DFD1D80810E94BA02E6
S113197001500023A1F78F2D9927DF91CF911F915B
S11319800F91FF90EF90DF90CF900895CF93DF9366
S1131990CDB7DEB724970FB6F894DEBF0FBECDBF28
S11319A08FB7F89499272091A9023091AA0229832C
S11319B0232F33272A832091F4023091F5022B83BD
S11319C0232F33272C838FBF24E0AE014F5F5F4F5B
S11319D060E088E691E00E94850C24960FB6F894A6
S11319E0DEBF0FBECDBFDF91CF9108951F93CF937C
S11319F0DF93182F8FB7F894C82FDD2760E080E0BD
S1131A000E944202882321F0CFBF80E090E005C00D
S1131A10CFBF812F0E94BA029927DF91CF911F91E6
S1131A20089583E00E94F60C9927089589E00E94A6
S1131A30F60C99270895EF92FF920F931F93CF937B
S1131A40DF93182F7B01042F8FB7F894C82FDD275D
S1131A5060E080E00E944202882321F0CFBF80E052
S1131A6090E014C0CFBF1064812F99279093FB029C
S1131A708093FA020E94BA02182F402F5527B7010B
S1131A8080E090E00E943403812F9927DF91CF9169
S1131A901F910F91FF90EF900895C098609170018D
S1131AA07091710141E08FE30E941B0D089582E063
S1131AB090E09093FB018093FA0181E0809374029B
S1131AC020E030E080910201843011F421E030E024
S1131AD0232B29F484E00E947D02882319F40E94B8
S1131AE04D0D089584E00E94A80A08951F920F9254
S1131AF00FB60F9211242F933F934F935F936F93DD
S1131B007F938F939F93AF93BF93EF93FF938091B2
S1131B10FA019091FB01019749F482E090E09093DF
S1131B20FB018093FA010E94570D05C080911A02AF
S1131B308F5F80931A02FF91EF91BF91AF919F91B4
S1131B408F917F916F915F914F913F912F910F9062
S1131B500FBE0F901F9018951F9380911A01882330
S1131B6009F04BC0109102011F3F09F046C060E02C
S1131B700E944202882309F440C081E08093D90680
S1131B808091DA018823E1F11092D90685E090E092
S1131B9045C0923069F5C09A8091030120E030E09D
S1131BA08F3F11F421E030E0232BE9F41093050179
S1131BB08F3F19F42FEF30E00DC0282F3327F901A0
S1131BC0E554FD4F8081809303018F3F11F41093FE
S1131BD00401108320931B0281E080931B0188E0A1
S1131BE00E94680105C01093050110921B0111C0E9
S1131BF080911B01882369F00FC081E090E00EC042
S1131C008091050190911B01882319F2923021F0F3
S1131C10EFCF80E00E945F0280E090E01F91089582
S1131C201F93CF93DF939FB7F894C92FDD271C2F01
S1131C3090910201981721F0CFBF81E090E03AC063
S1131C408FEF8093020130911A013323F1F48FB79F
S1131C50F8949927109259048FBF0E94AC0DCFBFFE
S1131C6011C02093020181E090E002C0880F991F07
S1131C704A95E2F78095382330931A0186E00E9452
S1131C8068011FBF80E090E015C080E065E0E32FAD
S1131C90FF270E94792C292F492F5527CF01042E85
S1131CA002C0959587950A94E2F780FDDACF822FDA
S1131CB08F5FEFCFDF91CF911F91089582E00E9453
S1131CC0100E9927089583E00E94100E9927089515
S1131CD01F93CF93DF938FB7F894C82FDD271C2F62
S1131CE08091FA019091FB01892B29F484E00E94F0
S1131CF0100ECFBF1EC01092740280911A02882366
S1131D0011F0B79904C00E9908C0882319F08150C6
S1131D1080931A020E94570D0BC081E090E09093CB
S1131D20FB018093FA0110921A0284E00E94100EC3
S1131D301FBFDF91CF911F9108950E946A04C09A3A
S1131D40C09888E00E94F60C88E00E94F60CC09AC5
S1131D5084E00E94100E0E94680E0895FF920F9373
S1131D601F93CF93DF93F82E8B018FB7F894C82F6E
S1131D70DD2760E080E00E944202882321F0CFBF8B
S1131D8080E090E00CC0CFBF8F2D0E94BA02812F5B
S1131D9099270E94BA02802F0E94BA029927DF91E4
S1131DA0CF911F910F91FF9008951F931FB7F8943F
S1131DB080911902882319F460E070E009C060E0A2
S1131DC080916207882309F461E081E0682777271E
S1131DD08091AC02882319F480E090E00AC090E07E
S1131DE080916604882309F491E081E09827892F83
S1131DF09927762F6627770F770F770F24E0880FC0
S1131E00991F2A95E1F7826E9262682B792B81E102
S1131E100E94AE0E812F99278FBF1F9108958FB70F
S1131E20F8949927609168048FBF85E0689FB0019A
S1131E301124625D7E4F706488E10E94AE0E0895A5
S1131E40EF92FF921F93CF93DF93E090AD02F09057
S1131E50AE02F70182A59927182F882309F41FE100
S1131E60C09880911702811749F0612F77276F710D
S1131E707070606E706885E10E94AE0E1093170258
S1131E80F70110818FB7F894C82FDD2760E080E058
S1131E900E944202882311F0CFBF12C0CFBF8EE34D
S1131EA090E09093FB028093FA028EE30E94BA02C0
S1131EB01150412F552760E070E0C7010E943403A0
S1131EC0DF91CF911F91FF90EF900895FF920F93B0
S1131ED01F93CF93DF93EC01F62E61E082E00E9422
S1131EE02802882319F085E090E069C08091DA0621
S1131EF08F5F8093DA0681508B838FB7F894082F15
S1131F00112762E081E00E944202882329F40FBF76
S1131F100E94550381E052C08FB7F894992724E0BA
S1131F2020935A048FBFD0930503C09304030FBFBB
S1131F308DE0F80EFE01F1928981992780729070EC
S1131F408983118289819927816498688983892F7B
S1131F50992781831CA618A619A619AA18AA1FA630
S1131F6080E88EA761E060935D0440910403509182
S1131F7005038FB7F894282F332780911C01909183
S1131F801D018830910511F0019711F02FBF15C084
S1131F9082E090E090931D0180931C016093690797
S1131FA05093AE024093AD021092B3012FBF0E9432
S1131FB0000B882311F40E94200F80E09927DF9101
S1131FC0CF911F910F91FF900895FA01422F2D3167
S1131FD018F082E090E0089583876683872F99271D
S1131FE087832FB7F89433278091A9029091AA028E
S1131FF02FBF8483892F992785832FB7F89433279C
S113200080910601909107012FBF8087892F99271E
S1132010818780910901882369F0109209018FE377
S11320208287642FCF010E94660F9927282F882367
S1132030A9F417C0842F9927909301038093000378
S1132040F0932101E09320018CE00E9468018091CB
S11320500901882349F489E090E008958FEF809383
S11320600901822F992708951092B30280E090E02D
S113207008951F9380910F019927019665E070E000
S11320800E94992C682F80930F0110E0462F55274A
S1132090FA01EE0FFF1FE65FFC4FA081B18110979C
S11320A099F0E62FE695E695E695FF27E15AF84F75
S11320B0808199279A012770307002C09595879581
S11320C02A95E2F780FF0DC0CA01019665E070E031
S11320D00E94992C682F1F5F1530C1F610930F01D1
S11320E019C060930F016530A8F42C912D5033274B
S11320F0FD0167817727762F662786819927682BCC
S1132100792BAD0183850E94E50F882319F089E1BD
S11321100E9468011F910895CF93DF93582FFB010C
S1132120853018F081E090E033C0C82FDD27CC0F54
S1132130DD1FC65FDC4F88819981892B19F085E00A
S113214090E026C079836883435F40834D5080913B
S11321500F01853018F480E090E01AC08385678110
S11321607727762F662726813327622B732B50938C
S11321700F01242FAF010E94E50F9927282F8823F0
S113218029F085E080930F0119821882822F992704
S1132190DF91CF910895FB018683892F9927878347
S11321A083E6838784E00E948C1099270895AF9278
S11321B0BF92CF92DF92EF92FF920F931F93BC01D5
S11321C081E08093720260938C01872F992780931A
S11321D08B016A32710521F0AA24BB24650108C071
S11321E0A0902E01B0902F01C0903001D090310109
S11321F0A092900111270D2DFC2CEB2CE0928F0165
S113220096014427552720938E018D2D9927AA27BF
S1132210BB27EBE8F1E08283FF2400271127102F6E
S11322200F2DFE2CEE24B82FAA27992788273327B1
S113223044275527A90133272227822B932BA42B2C
S1132240B52B2A2D332744275527822B932BA42BD8
S1132250B52BE82AF92A0A2B1B2BE114F1040105FA
S1132260110511F410E010C06A32710521F418E070
S11322706EE574E003C010E060E070E0412F552784
S113228081E991E00E944A2C8FEF8093850180932D
S1132290860180E680938A011A5F412F6FE771E01F
S11322A080E00E948C101F910F91FF90EF90DF90BF
S11322B0CF90BF90AF9008951F93182F81E090E0C6
S11322C090931D0180931C011092DA010E94AC0DC1
S11322D08FB7F8949927109316018FBF82E00E945C
S11322E068011F9108950F931F930FB7F894112756
S11322F010921D0110921C0187B78F7E87BF87B78C
S11323008F7D87BF83E00E94100EC09A0FBF0FB766
S1132310F89411271092FB011092FA010E946A04AA
S1132320C09A89B78F7B89BF0FBF80E090E01F916F
S11323300F9108950E9473110E94760481E00E9417
S11323406801089583E090E09093580780935707BD
S1132350D998A0EDB1E0EEE5F4E088E001900D92AB
S11323608150E1F7809162049927982F8827209162
S113237063043327822B932B2091000130910101B8
S11323802817390769F562E081E00E944202882338
S113239079F08FB7F894992723E020935A048FBFDC
S11323A00E9473110E94760481E00E94680118C0A3
S11323B060E081E00E944202882391F464E081E0BD
S11323C00E944202882341F08FB7F894992723E0B2
S11323D020935A048FBF04C063E081E00E9442024C
S11323E0409160045527542F442780916104992714
S11323F0482B592B6627772781E00E948004089593
S1132400EF92FF920F931F9379018A01683018F0BD
S113241048E050E002C0462F5527BC018EE594E009
S11324200E944A2CE0922E01F0922F010093300179
S1132430109331010E94A2111F910F91FF90EF9010
S1132440089561E081E00E9428028823E9F48FB7AF
S1132450F894282F33278091170190911801892B24
S113246011F02FBF20C081E090E090931801809379
S113247017012FBFDD9A0E94E80524E130E040E017
S113248050E00E94A5060FC062E081E00E94420273
S1132490882319F089E090E0089561E081E00E94CA
S11324A04202882319F080E090E0089585E090E0EE
S11324B00895CF92DF92EF92FF920F931F93CFB6BE
S11324C0F894DD240E94DA00DC01CB0166E470E0BC
S11324D00E94852C1BE0E12EF12CE80EF91EF092EF
S11324E06607E09265070E94E80500271127A80106
S11324F097010E94A506CFBE1F910F91FF90EF9008
S1132500DF90CF9008951F93CF93DF938FB7F89404
S1132510C82FDD271C2F80911C0190911D01089765
S1132520C9F489E00E94F60C83E00E94100EC09A60
S113253081E090E090931D0180931C018FB7F89483
S1132540992723E0209316018FBF82E00E9468013F
S1132550CFBF30C0C09880916907882311F085E00F
S113256001C084E00E94F60C83FD09C080E00E9453
S1132570F60C83FF04C085E090E020E003C083E014
S113258090E021E090931D0180931C01C09A1FBF2D
S1132590222341F01092B30183E00E94100E0E94A6
S11325A0591208C00E94E80520E431E040E050E000
S11325B00E94A506DF91CF911F91089578941F92F0
S11325C00F920FB60F9211241F932F933F934F93A3
S11325D05F936F937F938F939F93AF93BF93EF9387
S11325E0FF9387B78F7E87BF78941FB7F894809145
S11325F0B5029091B602A091B702B091B8020097CB
S1132600A105B10509F051C080911C0190911D01F3
S11326108530910561F18630910530F48330910560
S113262049F0049781F51AC087309105F1F00897B5
S113263051F514C0869B0FC084E090E090931D0177
S113264080931C010E94E80527E030E040E050E060
S11326500E94A50618C00E94591215C00E94000BC2
S1132660882389F40E9483120EC080E00AC089E0A6
S11326700E94F60C81E00E94BE0883E00E94100EC6
S113268087E00E945C1180911701909118010197D5
S113269071F482E090E09093180180931701DE9822
S11326A0DE9A80E00E94A80A02C00E940506812FDB
S11326B099278FBFFF91EF91BF91AF919F918F9118
S11326C07F916F915F914F913F912F911F910F9047
S11326D00FBE0F901F901895EF92FF920F931F93C8
S11326E0CF93DF938B018091FA029091FB0286FFD6
S11326F040C18F7B8F3309F08EC1C0917001D0919E
S1132700710158815093FF018091FA019091FB016E
S11327108530910509F443C08630910509F48AC0D7
S1132720029709F01FC185E090E09093FB0180932C
S1132730FA014091CE01852F99270196242F332742
S1132740281739074CF1B79906C00E9904C0451BE8
S113275041504093CE014091FF014A32E8F44423B2
S1132760A1F0BE016F5F7F4F483018F047E050E0A2
S113277007C086E090E09093FB018093FA0155270F
S113278080E090E00E94340346C110927402C09A23
S113279084E00E94100EE3C00E949D0E3CC186E0BE
S11327A090E09093FB018093FA018091AC0288231E
S11327B009F439C0809166048823A9F5898185FFCD
S11327C032C08F814E812FB7F89433276091F40281
S11327D07091F5022FBF9927982F88275527842BAE
S11327E0952B8617970759F08F812E819927982F5B
S11327F088273327822B932B8F5F9F4FA1F48981E6
S11328008770813081F4C09AC0988AE00E94F60CE7
S1132810C09AC0984091FF0147502896BE018FE3AB
S11328200E941B0DF8C04091FF0147505527289680
S1132830BE01A6CFC09A80911A02882339F484E09D
S11328400E94100E80911A02882311F0B7990AC0D1
S11328500E9B08C090915307992321F08091FF01AA
S11328608B3038F480917001909171010E94AF080F
S11328703DC0913001F5E0915E07FF27EE0FFF1F89
S1132880EE0FFF1FE150F94F2081318142815381C6
S1132890E0917001F091710121ABBB27A52F942F1A
S11328A0832F80ABCA01AA27BB2787A7252F3327ED
S11328B04427552726A780915E079927019668E04B
S11328C070E00E94992C80935E0780915307815099
S11328D080935307882351F0809170019091710186
S11328E00E94AF0810925E07109253078091FF0177
S11328F0FE01E80FF11D808187FF31C0012B79F1C2
S113290069816770E0917001F0917101623019F58D
S1132910A091AD02B091AE02109709F180911C0113
S113292090911D010797D9F4ED019B81838198173C
S1132930B1F487B78F7E87BF908181E08CA7E90FC0
S1132940F11D8291319688A780818F7789A780E0D5
S11329500E945C1104C0613011F489E02AC00E9415
S1132960680E59C010927402C09A84E00E94100E3E
S113297052C08E3309F04FC0C09A80911C019091CF
S11329801D010897C9F4C09889E00E94F60CC09A0A
S113299083E00E94100E81E090E090931D018093EB
S11329A01C018FB7F894992723E0209316018FBF59
S11329B082E00E9468012FC080916907882349F44E
S11329C084E090E090931D0180931C010E94831287
S11329D022C083E00E94100E83E090E090931D01DA
S11329E080931C010E94DA00DC01CB0166E371E0F4
S11329F00E94852C0BE0E02EF12CE80EF91EF092DB
S1132A00C801E092C7010E94E80500271127A80128
S1132A1097010E94A506DF91CF911F910F91FF901E
S1132A20EF9008951F920F920FB60F9211242F93D7
S1132A303F934F935F936F937F938F939F93AF9342
S1132A40BF93EF93FF932FB1E091D003F091D103A3
S1132A50309739F08091080390910903E80FF91F2A
S1132A6020838091080390910903019690930903B0
S1132A708093080380E00E94650240917D0150919B
S1132A807E0180910803909109038417950718F437
S1132A900E94C6021CC06091D0037091D103809142
S1132AA06307909164071092D1031092D00310929F
S1132AB064071092630710927E0110927D011092B8
S1132AC00903109208032FB120E00E946C13FF91B8
S1132AD0EF91BF91AF919F918F917F916F915F9192
S1132AE04F913F912F910F900FBE0F901F9018950B
S1132AF00F931F930FB7F894112740917D015091C4
S1132B007E016091D0037091D1038091630790910D
S1132B1064071092D1031092D003109264071092AC
S1132B20630710927E0110927D01109209031092A6
S1132B30080320E00E946C130FBF1F910F910895AA
S1132B4078941F920F920FB60F9211242F923F92F6
S1132B504F925F926F927F928F929F92AF92BF92A9
S1132B60CF92DF92EF92FF920F931F932F933F9395
S1132B704F935F936F937F938F939F93AF93BF9381
S1132B80CF93DF93EF93FF93CCB5DDB580E286BF9F
S1132B908FB7F894282E0E94E8059E01261B370B58
S1132BA02901662457FC6094762C460E571E681E35
S1132BB0791E80911C0190911D018530910521F0B1
S1132BC0069709F0E0C0BFC086E090E090931D0135
S1132BD080931C0131E0332E3092710210921E0159
S1132BE080E00E94BE08E091AD02F091AE0241AADD
S1132BF0BB27A72D962D852D80ABC301AA27BB2704
S1132C0087A7872D9927AA27BB2786A7E091AD021E
S1132C10F091AE0285A5882309F484C060816550D3
S1132C2077274F01860E971EF4012081E18082816F
S1132C30A3809927AA27BB27BA2FA92F982F8827C3
S1132C40332744275527522F442733272227FF248D
S1132C50002711278701FF24EE242E293F29402B2A
S1132C60512BBB24CC24DD242A293B294C295D2962
S1132C70822B932BA42BB52B84199509A609B7098C
S1132C808383292F3A2F4B2F552722839D014427D5
S1132C90552721838B2F9927AA27BB278083C09888
S1132CA024E0A40180E090E00E94850CC09AF40125
S1132CB02081E1808281A3809927AA27BB27BA2F8C
S1132CC0A92F982F8827332744275527522F442785
S1132CD033272227FF24002711278701FF24EE240E
S1132CE02E293F29402B512BBB24CC24DD242A2917
S1132CF03B294C295D29822B932BA42BB52B840DC6
S1132D00951DA61DB71D8383292F3A2F4B2F5527B9
S1132D1022839D014427552721838B2F9927AA2796
S1132D20BB278083E091AD02F091AE02818185FFE3
S1132D3002C03092DA0183E00E94100E87B78F7EC2
S1132D4087BF84997AC01092710281E00E94BE0804
S1132D50E091AD02F091AE02818185FF0FC087E062
S1132D6090E090931D0180931C010E94E80520E0EF
S1132D7031E040E050E00E94A50603C080E00E94DC
S1132D805C11849B5AC080911E01882391F5809127
S1132D907102882371F511E0109371020E94BE083C
S1132DA080B320915307283098F4E0915E07E20F36
S1132DB0FF27E770F070EE0FFF1FEE0FFF1FE150CB
S1132DC0F94F40825182628273822F5F20935307AE
S1132DD010931E01D093FD02C093FC0284992DC070
S1132DE09927A4E096958795AA95E1F7182F117075
S1132DF001C010E0809171028130F9F410927102E7
S1132E000E94BE0810921E011123B9F48091FC02A5
S1132E109091FD02C81BD90B2A9778F4809153072F
S1132E20882319F08150809353078091AD029091CB
S1132E30AE02009711F00E94AF082FBEFF91EF91F0
S1132E40DF91CF91BF91AF919F918F917F916F91BE
S1132E505F914F913F912F911F910F91FF90EF90B0
S1132E60DF90CF90BF90AF909F908F907F906F90A6
S1132E705F904F903F902F900F900FBE0F901F9038
S1132E801895AF92BF92CF92DF92EF920F931F9358
S1132E905B016C010E94D601AB01BC01E1E0EE2EA6
S1132EA09601850187E00E94B2011F910F91EF9076
S1132EB0DF90CF90BF90AF900895CF92DF92EF92C2
S1132EC0FF920F931F936C017B010E94DA00DC01D7
S1132ED0CB01B6010E94852CE80EF91E00271127AC
S1132EE0C801B7010E9441171F910F91FF90EF9005
S1132EF0DF90CF9008950F931F93CF93DF93EC014E
S1132F00E0913301FF27EE0FFF1FE552F94F0081D7
S1132F101181662329F06CE170E08CE190E02FC010
S1132F208091320183FF3DC08CA58823D1F58F8128
S1132F309927982F88272E813327822B932B0E9441
S1132F408F00982F8F3F71F08BE0989FF001112430
S1132F50E85EFC4F82858F5F8287853018F0CF0151
S1132F600E9453048DE10E946801F801838181501D
S1132F708383882339F067E070E087E090E00E9463
S1132F805D173FC00E94D003809132018F7E8093F1
S1132F90320167E070E087E090E00E945D1740E056
S1132FA02CC00E94D003809132018F7E8093320125
S1132FB067E070E087E090E00E945D178F819927B9
S1132FC0982F88272E813327822B932B0E948F00E2
S1132FD0982F8F3F89F08BE0989FF0011124E85ED1
S1132FE0FC4F81858F5F818782858F5F82878530E3
S1132FF018F0CF010E94530441E0BE01C8010E94B1
S1133000D509DF91CF911F910F910895282FCB01FE
S1133010223079F0233028F4222341F02130C9F4FE
S113302005C0233051F02430A1F411C01092720273
S11330300895642F0E947B1708956557724049F4E0
S113304080913A01882329F010923A010895109250
S113305037040895EF92FF920F931F93E82E8B018C
S1133060F42EE82FFF27EE0FFF1FE65FFC4F1182BF
S113307010820E9439104F2DB8018E2D0E9406181F
S11330801F910F91FF90EF9008950F931F93CF938B
S1133090DF93042F10910F011530A0F4E12FFF27C7
S11330A0EE0FFF1FE65FFC4FC081D181C617D70723
S11330B049F4118210820E943910402FBE01812FE1
S11330C00E940618DF91CF911F910F910895CF931D
S11330D0DF93C0912001D0912101609100038FE31F
S11330E08A87CE010E94660F482F5527442351F04A
S11330F08FEF8093090160912001709121018B85EC
S11331000E944518DF91CF910895AF92BF92CF925C
S1133110DF92EF92FF920F931F930E94D6017B01DF
S11331208C016091AC037091AD038091AE039091DA
S1133130AF03A0907401B0907501C0907601D09057
S11331407701A114B104C104D10409F44EC0EFB74E
S1133150F8942091060420FD36C0A8019701261B8F
S1133160370B480B590B2A153B054C055D05C8F474
S1133170A21AB30AC40AD50A809174019091750108
S1133180A0917601B0917701821B930BA40BB50B30
S11331908093740190937501A0937601B0937701A5
S11331A015C081E090E0A0E0B0E0809374019093BA
S11331B07501A0937601B093770131E0A32EB12C71
S11331C0C12CD12C03C02E7F209306048E2F992767
S11331D08FBF0E94D601AB01BC0121E0E22E960113
S11331E0850184E00E94B20105C08091B4038D7F03
S11331F08093B4031F910F91FF90EF90DF90CF90D5
S1133200BF90AF900895FF920F931F93CF93DF93D6
S1133210F82E282F33278BE090E0289FE001299F88
S1133220D00D389FD00D1124CE58DE4F81E090E0B0
S1133230998388831A868A819B81AC81BD8100979A
S1133240A105B105A1F00FB7F8941127C9010E9497
S1133250CF050FBF1A821B821C821D821E821F8211
S1133260188619868F2D0E94010C0E948518DF9103
S1133270CF911F910F91FF9008958A9719F480E0E0
S11332800E9403190895AF92BF92CF92DF92EF92FA
S11332900F931F935B016C010E94D601AB01BC012B
S11332A0E1E0EE2E9601850185E00E94B2011F91B6
S11332B00F91EF90DF90CF90BF90AF900895AF92B1
S11332C0BF92CF92DF92EF92FF920F931F93809160
S11332D0110190911201A0911301B0911401B695BE
S11332E0A7959795879580936D0290936E02A0930E
S11332F06F02B09370020E94DA00E0906D02F090C9
S11333006E0200916F0210917002A80197010E9451
S1133310AC2C5B016C01AE0CBF1CC01ED11EA09274
S11333206D02B0926E02C0926F02D092700210923F
S1133330F3068091BD038D7F8093BD030E94D60167
S1133340AB01BC01F1E0EF2E9601850185E00E94FE
S1133350B2011F910F91FF90EF90DF90CF90BF903B
S1133360AF90089580E890E0A0E0B0E08093110170
S113337090931201A0931301B09314010E945F195A
S113338008952F923F924F925F926F927F928F9205
S11333909F92AF92BF92CF92DF92EF92FF920F93E0
S11333A01F93CF93DF93CDB7DEB723970FB6F8946F
S11333B0DEBF0FBECDBFA0917001B09171011C9111
S11333C09D01210F311DF9018081881F8827881FE5
S11333D0FD0183A7F90180818F77FD0181A7215029
S11333E03040F9018081FD0180A7E0917001F091E6
S11333F071018FB7F8949927209119028FBF222366
S1133400F9F0878146812FB7F89433276091F4024D
S11334107091F5022FBF9927982F88275527842B61
S1133420952B8617970761F0878126819927982F16
S113343088273327822B932B8F5F9F4F09F008C572
S11334401D3008F405C58090700190907101F4015D
S1133450818520859927582F44273327422B532BC6
S113346063818FEF809361078FB7F894782F20E002
S113347030E0EBEBF1E0808191818417950731F422
S11334808281861709F49FC4209361072F5F3F4F01
S113349033962430310579F77FBF909161073FB7A8
S11334A0F8949F3F21F080911F01891799F420918E
S11334B01F01822F9927FC01EE0FFF1FE80FF91F50
S11334C0E554FE4F5183408362832F5F2370209322
S11334D01F010CC0892F9927FC01EE0FFF1FE80F75
S11334E0F91FE554FE4F518340836283832F99274C
S11334F08FBFF40183A5882309F48BC482858F339D
S113350009F087C4878146812FB7F89433276091E7
S11335100601709107012FBF9927982F88275527F7
S1133520842B952B8617970761F08781268199272D
S1133530982F88273327822B932B8F5F9F4F09F077
S11335406DC4612F6D50BCE06B2E712C680C791C1E
S1133550F40183859927833609F4C7C0843630F48F
S1133560803659F0813609F054C497C0803709F485
S113357054C1813709F04DC41AC3F40184852585EB
S11335809927382E22243327222A332A2685778521
S113359090895188FAE22F16310421F0AA24BB2421
S11335A0650108C0A0902E01B0902F01C090300199
S11335B0D09031018091C901882309F42AC4892F4C
S11335C09927AA27BB27EE24F82E092F1A2F332771
S11335D044275527522F442733272227872F9927FB
S11335E0AA27BB27DC0199278827282B392B4A2BAC
S11335F05B2B852D9927AA27BB27282B392B4A2BF0
S11336005B2BE22AF32A042B152BA114B104C10469
S1133610D10459F4E114F1040105110589F12AE2F8
S11336202216310409F0F5C31BC0E114F1040105AD
S1133630110531F48AE22816310409F0EAC317C0EF
S1133640D801C7018A199B09AC09BD0918161906C6
S11336501A061B0684F49AE22916310409F0D9C328
S11336606650A8019701C30106960E94001280E0EB
S11336700E940319CEC3EA14FB040C051D0559F47A
S1133680EAE22E16310409F0C4C380917C018F5FF5
S113369080937C01BEC3C10125C08091C9018823E8
S11336A009F4B7C3F401848525859927982F8827C1
S11336B03327822B932B8A9709F0ABC380912E0179
S11336C090912F01A0913001B09131010097A10593
S11336D0B10509F49EC3F30180819927982F8827A7
S11336E0822B932B0E94D71094C3643109F091C3A9
S11336F080913704882309F08CC3A8E4EA2EA1E062
S1133700FA2ED701F30184E101900D928150E1F783
S11337106091000170910101809158019927982FBF
S11337208827209159013327822B932B86179707DB
S113373009F46FC3809156019927182F00278091AF
S113374057019927082B192B0617170709F461C38A
S1133750809154019927B82FAA2780915501992760
S1133760A82BB92BA617B70709F453C380915201AC
S11337709927D82ECC24809153019927C82AD92A75
S1133780C616D70609F445C3809150019927582FCE
S11337904427809151019927482B592B46175707E5
S11337A009F437C380914E019927382F222780913D
S11337B04F019927282B392B2617370709F429C3DA
S11337C000935901812F9927F701808BA09357010A
S11337D08B2F99278687C09255018D2D9927848731
S11337E040935301852F9927828720935101832F7A
S11337F09927808760934F01872F9927868344E117
S11338006CE371E08FEF9FEF0E94CB10882309F0E7
S113381000C381E080933704FCC2F40187812681D0
S11338209927982F88273327822B932B8F5F9F4FBD
S113383009F0DAC0F401818520859927F82EEE2459
S11338403327E22AF32AC7010E948F008F3F21F019
S1133850F401658577270CC00E943008182F8F3F2C
S113386051F0B7010E945B07F40165857727812F2A
S11338700E946C07B9C081E40E944208182F8F3F50
S1133880A1F0282F33278BE090E0289FF001299F97
S1133890F00D389FF00D1124E85EFC4F808191817A
S11338A00E948F0BB701812F9DC090E0F40181A588
S11338B08A3608F091E0992309F496C0C4010E9465
S11338C08B08182F682FC4010E941C02DC01F4012C
S11338D08385803709F088C0153009F09AC2FD014C
S11338E0818122819927982F88273327822B932B34
S11338F08F5F9F4F09F4A3C2FD018381248199271F
S1133900582F44273327422B532B4115510521F1BE
S11339108091D801082F11276091F5067091F60661
S1133920A0E020E030E0EDE1F2E00EC08081918182
S11339308617970731F0848195814817590708F451
S1133940A1E02F5F3F4F38962017310714F4AA23C4
S113395069F3AA2309F46EC210E0EDE1F3E080817B
S1133960992780FF04C083FD02C081FF1F5F3B963F
S113397023E0EB38F20799F71123B1F10E94DA0042
S1133980DC01CB01612F77270E94852C00E010E039
S1133990EDE1F3E09081992349F0292F332723FDAA
S11339A005C021FD03C081508F3F39F00F5F1F4FC9
S11339B03B960A30110571F717C0202F0F3FA1F075
S11339C033278BE090E0289FF001299FF00D389F6A
S11339D0F00D1124E85EFC4F808191810E948F0BD1
S11339E0B701802F0E945B07C4010E948B08182F27
S11339F0682FC4010E941C027C01153009F009C221
S1133A00F4011185008560E4C4010E949A088B8347
S1133A1057010894A11CB11CF70181811501089478
S1133A20211C311CF50121819927982F88273327E0
S1133A30822B932B8F5F9F4F09F4A3C0812F99276B
S1133A40D82ECC24802F9927C82AD92A63E0462E61
S1133A50512C4E0C5F1CF701838154E0652E712CB0
S1133A606E0C7F1C24819927982F88273327822B5B
S1133A70932B892B49F5C6010E948F008F3F09F5CE
S1133A800E9430088F3F11F0B60119C08AE00E94ED
S1133A904208182F8F3FA9F0282F33278BE090E09E
S1133AA0289FF001299FF00D389FF00D1124E85E46
S1133AB0FC4F808191810E948F0BB601812F0E945F
S1133AC05B07C6010E94C000F201F080F301E080B0
S1133AD0F501B080F101A080C6010E94A7008C010D
S1133AE0C6010E946B08E82F8A3009F446C08F2D66
S1133AF09927782F66278E2D9927682B792B8B2D64
S1133B009927582F44278A2D9927482B592B809180
S1133B10D801E817F1F40233110578F52FB7F894BA
S1133B203327FF2783E0EE0FFF1F8A95E1F7E35E5B
S1133B30FD4FD182C082538342837583648381E0C5
S1133B40868317828091D8018F5F8093D8012FBF1D
S1133B5014C08FB7F8949927FF2703E0EE0FFF1FD7
S1133B600A95E1F7E35EFD4FD182C082538342831D
S1133B707583648321E026838FBF6B81C6010E9415
S1133B80D10B60E8C4010E949A08882309F441C15A
S1133B9080E890E0A0E0B0E08093110190931201DE
S1133BA0A0931301B09314010E945F1932C1F40170
S1133BB085858F5F85876D3108F02BC1C4010E9414
S1133BC0870320E09091B901891708F421E02223AA
S1133BD009F01FC120913501822F9927B82F88231E
S1133BE009F43FC0A0913301A20F38C0AC3010F4E7
S1133BF0EA2F02C0EA2FEC50FF27EE0FFF1FE55219
S1133C00F94F0190F081E02D00811181F8012089A4
S1133C104189F401808961893327322F222755276E
S1133C20242B352B9927982F88277727862B972B9A
S1133C302817390799F4F8019289F40182899817B1
S1133C4069F4F8019585F4018585981739F4F8012C
S1133C509389F4018389981709F4DBC0A150B1500A
S1133C6029F68091BA01882309F0D3C02091030377
S1133C70222309F481E0882309F0CBC09091020348
S1133C80992309F481E0882309F0C3C0992309F436
S1133C90C0C080916007E82FFF27EE0FFF1FE65991
S1133CA0F84F008111811182108291509093020388
S1133CB08F5F809360078C3011F4109260070115B8
S1133CC0110509F4A6C0222309F4A3C08091B4020B
S1133CD0E82FFF27EE0FFF1FE65CFB4FE080F1802B
S1133CE0118210822150209303038F5F8093B402CA
S1133CF08C3011F41092B402E114F10409F489C077
S1133D0084E3F70111928A95E9F788E290E0880E3E
S1133D10991E8CE0F40111928A95E9F788ED9FEFE2
S1133D20880E991EF801918280828FEF82838EE142
S1133D308383909135019C3008F075C080913401E3
S1133D40E82FFF27EE0FFF1FE552F94F1183008381
S1133D508F5F809334018C3011F4109234019F5F93
S1133D6090933501CE0101960E945C03882311F5DE
S1133D70F401868527859927982F88273327822B56
S1133D80932B29813A8128173907A0F080E890E025
S1133D90A0E0B0E08093110190931201A09313016D
S1133DA0B09314010E945F196CE170E08CE190E023
S1133DB00E945D178091CF0381FD03C08CE10E94B6
S1133DC06801470126C07FBF24C0F4011185008526
S1133DD084858078803871F480E890E0A0E0B0E0D9
S1133DE08093110190931201A0931301B0931401D5
S1133DF00E945F19F401848560E086FD61E0812FF3
S1133E009927982F8827202F3327822B932B0E94C2
S1133E10D10B90927101809270011AC0F4018385D4
S1133E208137B9F7D2CFC7010E94EB03C8010E94C2
S1133E300A04EFCF65E0C4010E941C0207C0C4015C
S1133E400E948B08682FC4010E941C027C01D8CDFB
S1133E508FB7F8949927109274028FBF0E94680E4E
S1133E6023960FB6F894DEBF0FBECDBFDF91CF917E
S1133E701F910F91FF90EF90DF90CF90BF90AF9084
S1133E809F908F907F906F905F904F903F902F9076
S1133E900895AF92BF92CF92DF92EF92FF920F9369
S1133EA01F93CF93DF935B016C01C0E0D0E0E8E89F
S1133EB0F3E07C2F608561FFA2C1208131814281C2
S1133EC05381E480F58006811781D601C501821BE8
S1133ED0930BA40BB50B8E159F05A007B10708F42F
S1133EE08EC160FF03C06D7F608708C02E0D3F1D2B
S1133EF0401F511F2083318342835383743009F45C
S1133F00D7C0753050F4723009F44DC0733008F0E6
S1133F104DC0713009F079C10AC0763009F45CC132
S1133F20763008F4FAC0773009F06FC15FC1809130
S1133F30570790915807009751F0019790935807AD
S1133F4080935707892B19F4DA9AD99AD89A8091D1
S1133F50D10180FF5AC180913704882309F055C1EB
S1133F608FB7F894C82FDD2780912501882379F431
S1133F7091E0909325011092AB02CFBF809128016C
S1133F80882311F480E138C1909329013EC180E077
S1133F900E94D104882329F48091D90181608093FF
S1133FA0D901CFBF32C10E9421122FC180E00E94EB
S1133FB0B204882309F43AC09FB7F89420912501EC
S1133FC0222319F421E030E00FC080910D018130EB
S1133FD019F020E030E008C040E050E021502230E9
S1133FE010F441E050E09A01892F99278FBF2223D2
S1133FF0E9F08FB7F894082F1127902F80910D01C5
S1134000813099F480912501813021F48EE00E9461
S1134010680109C0823049F48091AB0280930D019C
S113402083E0809325010FBF01C09FBF81E00E9400
S1134030B204882309F4E9C09FB7F89420912601BB
S1134040222319F421E030E00FC080912701882356
S113405019F020E030E008C040E050E02150223068
S113406010F441E050E09A01892F99278FBF222351
S113407009F4CBC08FB7F894082F1127902F8091A3
S11340802701882399F480912601813021F48FE05F
S11340900E94680109C0823049F48091FC01809338
S11340A0270183E0809326010FBFAFC09FBFADC03F
S11340B02091B0033091B1034091B2035091B30306
S11340C08091740190917501A0917601B09177016E
S11340D00097A105B105F1F082179307A407B5076E
S11340E0C9F480917C01882361F42FB7F8943327B5
S11340F0809117038160809317032FBF8BE10E9487
S1134100680180E090E00E94CF0580E00E94010CED
S113411010927C010E94851878C080913801882310
S113412009F473C080913901882309F46EC0809129
S1134130F306882349F58DE10E9468018EE10E940F
S11341406801A0901101B0901201C0901301D090A9
S1134150140180916D0290916E02A0916F02B09152
S11341607002A81AB90ACA0ADB0A81E08093F3062E
S11341700E94D601AB01BC01E1E0EE2E960185015F
S113418085E00E94B20141C0809111019091120119
S1134190A0911301B0911401880F991FAA1FBB1F8E
S11341A08093110190931201A0931301B093140111
S11341B08150904DA740B04060F080E090EDA7E0C2
S11341C0B0E08093110190931201A0931301B09376
S11341D014010E945F1919C0809138018823A9F045
S11341E080913901882389F08DE106C080913201E4
S11341F08F7E809332018CE10E94680106C0219673
S11342003996C830D10509F054CE8BE00E9468017C
S1134210DF91CF911F910F91FF90EF90DF90CF909E
S1134220BF90AF900895EF92FF920F931F938091E8
S11342301602882361F52091FB063091FC0640911B
S1134240FD065091FE06EFB7F894FF2760915504E0
S1134250709156048091570490915804E090CA01DB
S1134260F090CB010091CC011091CD016E0D7F1D1A
S1134270801F911FEFBF2093FB063093FC064093F1
S1134280FD065093FE06109216020E9441070E94FA
S1134290D6010E94491F1F910F91FF90EF9008953E
S11342A08F929F92AF92BF92CF92DF92EF92FF9242
S11342B00F931F93CF93DF93CDB7DEB722970FB63B
S11342C0F894DEBF0FBECDBFE82FFF27EF31F10515
S11342D008F041C7EA5BFF4FEE0FFF1F0590F49112
S11342E0E02D099480915F07882309F05CC433C7EB
S11342F08FB7F8942091170320FD8CC420E08EC45E
S11343000FB7F89411270E94D108E1E0EE2EF12CAA
S1134310F0921D01E0921C0110921E011092DA012C
S1134320109217020FBF0FB7F89411270E946A0466
S1134330F092FB01E092FA011092740289B78F7B2C
S113434089BF80E488BF8AB780628ABF8AB78F7EBC
S11343508ABF89B7806489BF0FBF8FB7F894082FCD
S113436011278091170190911801049711F40E946C
S1134370110D0FBF0FB7F8941127C09A80E00E9467
S1134380100E0FBF8FB7F894992722E020935A0498
S11343908FBF71E0F72EF0923801809139018823A4
S11343A059F00E9463019F718050904FAA27BB2748
S11343B0BC01CD010E944319809132018460809335
S11343C0320190E080913501882309F491E099232A
S11343D011F40E94D1018091740190917501A09112
S11343E07601B09177010097A105B10531F51092DE
S11343F07401109275011092760110927701109257
S113440078011092790110927A0110927B01109236
S11344107C0180E00E94010C0FB7F894112780E022
S113442090E00E94CF050FBF0E9485188AE290E0B9
S11344300E943D19F092B40104C08AE290E00E9407
S11344403D1991E09093C90180913201826080937B
S1134450320180913901882309F07DC69093390196
S11344600E94B21940E050E260E070E086E00E94F1
S1134470800471C68FB7F894992710925A048FBF9D
S113448010923801809132018B7F809332018091A8
S1134490B401882391F01092B40110927401109227
S11344A07501109276011092770180E094E0909368
S11344B07301809372010E9485181092C901809142
S11344C032018D7F80933201109239014091D601DF
S11344D05527542F44278091D7019927482B592BCE
S11344E06627772782E0C4C18FB7F8949927F090A4
S11344F016018FBF83E00E945902882319F00E949D
S11345009A1107C08FB7F894992722E020935A0490
S11345108FBF00910403109105030E945503F80115
S113452082858F3309F017C68FEF809309014F2DD1
S1134530B80183850E9445180EC68FB7F894282FBA
S11345403327122F809167078823F9F481E0809341
S113455067078091170190911801049721F481E075
S11345600E94A80A02C00E948F011FBFF4C58FB722
S1134570F894992710926707D4C18FB7F894282F1D
S1134580332780911901882311F02FBFE4C52FBF71
S113459080B3992736E0969587953A95E1F7182FD9
S11345A011709091F8028091F9028917D9F01917C6
S11345B0C9F484E090E090931801809317018FB7B9
S11345C0F894992721E0209319018FBF60E070E0EF
S11345D08DE10E94AE0E0E94C60CC09AC09880E085
S11345E00E9468011093F9020E949401B4C58FB728
S11345F0F8949927209102018FBF223009F45FC0FB
S1134600233030F4222359F0213009F0A4C542C0EC
S1134610233009F46DC0243009F09DC596C0C098BC
S11346208FB7F894082F11278091170190911801E2
S1134630029771F583E090E090931801809317013D
S113464068E170E08DE10E94AE0E81E08093F80293
S11346501092190180B3992726E0969587952A959B
S1134660E1F7817090708093F9020E94940181E0D7
S11346700E94F60C6FE772E08CE10E94AE0E0E947D
S11346800F0F0E94D50E66E57AE287E10E94AE0E16
S11346900FBF61C5C09886E00E94F60C0E940F0F00
S11346A00E94D50E0E94C60CC09AC0980E94110D9B
S11346B0C09A81E00E94100E0E948F014CC5C098E0
S11346C08FB7F894082F11270E945302882311F002
S11346D00FBF0AC00FBF83E50E94BA0280E00E94A8
S11346E0BA0280E00E94BA02C09A0E945E0E33C5EC
S11346F08FB7F894992720911C018FBF243039F08B
S1134700283041F02230F1F40E94200F24C50E9489
S1134710831221C5C0980E94160DC09A0E94630E90
S11347202FB7F894332781E090E090931D01809394
S11347301C012FBF63E08091AD029091AE020E94F4
S1134740990109C50E94630E06C50E944D0D03C55B
S11347500E94781500C50E947A0BFDC40E94C119FD
S1134760FAC40E941321F7C40E94D6015B016C01B4
S11347708FB7F8949927109207038FBF8FEFE82E15
S11347808FEFF82E8FEF082F8FE7182F60E0E8E8FF
S1134790F3E0808581FF1CC080819181A281B38177
S11347A0A6019501281B390B4A0B5B0BDA01C901E1
S11347B02481358146815781281B390B4A0B5B0BB9
S11347C02E153F05400751071CF479018A0161E069
S11347D0399633E0E03DF307E1F6662309F4BBC400
S11347E01E141F04100611062CF0C601B5010E9408
S11347F0491FB1C4E092FB06F092FC060093FD064B
S11348001093FE0681E080931602A8019701C60169
S1134810B5010E9441079FC49091B30280910901A0
S1134820981709F498C490930901992319F40E94E4
S1134830671891C48FEF809309018DC48FB7F894E2
S113484099272091670420930C0123E020932301EE
S11348508FBF80910C01882321F0813009F07BC443
S11348600AC0159A1D9A4AE050E060E070E083E0C7
S11348700E94FD0170C4169A1E9AF5CF2FB7F894C2
S113488033278091AB0280930D0143E040932501CF
S11348902FBF80910D018093F4068FB7F894082FF1
S11348A0112780912D01882331F581E080932D011A
S11348B0109286030FBF8FB7F8949927379A8FBF4A
S11348C08FB7F894082F1127902F80910E01813013
S11348D081F480912D01813019F40E94A301D8CE76
S11348E0823039F48091860380930E0140932D0128
S11348F0CFCE9FBF30C480E00E949E04882309F07D
S1134900C7CE80911603816080931603C1CE8FB702
S1134910F89499272091FC012093270123E0209308
S113492026018FBF18C40E94C50515C41D9815988B
S113493084E106C00E94CA050EC41E98169885E13B
S11349400E94680108C480E00E940F0B8091290135
S1134950813011F40E94C5058FB7F89499271092FD
S1134960290110922801DDCF81E00E940F0B809174
S11349702B01813011F40E94CA058FB7F89499274E
S113498010922B0110922A01CCCF2FB7F894332721
S11349908091860380930E0183E080932D012FBFC5
S11349A080910E01882309F0D6C381E08093FF0231
S11349B010925D070E94E504CEC31092FF02A090FE
S11349C03804B090390480915D07882309F0C3C38B
S11349D08FB7F894C82E80912D01833009F040C020
S11349E080910E018823E1F580911603882309F054
S11349F09BC393C3ED2DE695E695E695FF274D2DD4
S1134A005527EA5EFC4F9A012770307081E090E0F0
S1134A1002C0880F991F2A95E2F7809520812823E8
S1134A20208300932C0112C00F5F1F4F013011052A
S1134A3011F400E010E0D02E802F0E949E04882301
S1134A40C9F60E151F0581F74FEF50E0409386031A
S1134A508FEF80930E0181E080932D010E94A301CA
S1134A60CFBE0E94C704882309F49AC09090F4062C
S1134A708FB7F894C82E80912501833009F040C087
S1134A8080910D018915E1F58091D901882309F000
S1134A905CC350C3ED2DE695E695E695FF274D2DB5
S1134AA05527E752FE4F9A012770307081E090E05D
S1134AB002C0880F991F2A95E2F780952081282348
S1134AC020830093240112C00F5F1F4F0130110592
S1134AD011F400E010E0D02E802F0E94D10488232E
S1134AE0C9F60E151F0581F74FEF50E04093AB0256
S1134AF08FEF80930D0181E0809325010E94A8012E
S1134B00CFBE992009F04CC0B0921502A0921402B5
S1134B108091D00182FF44C080913704882309F03A
S1134B203FC020910001309101012093C902432F1D
S1134B3055274093C802A092CB028B2D99278093CE
S1134B40CA022093CD024093CC022093CF0240931B
S1134B50CE0297EE9093D10283E08093D00290939B
S1134B60D3028093D2029093D5028093D40290937F
S1134B70D7028093D6029093D9028093D8022093CF
S1134B80DB024093DA02D99844E16CEB72E08FEFD8
S1134B909FEF0E94CB10882319F481E0809337049F
S1134BA00E94CC04D8C2B1E0DB2EEE24FF240AE03C
S1134BB013E090915F078D2D892379F0D8016D91D1
S1134BC07C9111971D921C928D2D80959823909322
S1134BD05F0743E08E2D0E9406180894E11CF11C27
S1134BE00E5F1F4FB8E0EB16F10409F4B4C2DD0CFC
S1134BF0E0CF80910F01E82FFF27EE0FFF1FE65F44
S1134C00FC4F6081718141E00E942A18A4C20E9475
S1134C10A211A1C22E7F2093170321E099278FBFF1
S1134C20222309F498C28091C901882341F080911C
S1134C307202882321F48AE290E00E94D7100E9435
S1134C40AD0189C28091320184FD85C290E08091DA
S1134C503501882309F491E0992309F07CC28091FD
S1134C60BA01882359F420E08091F5069091F60664
S1134C708F5F9F4F09F021E0222331F0CE0101968E
S1134C800E945C03882339F060E177E280E090E0E1
S1134C900E94411760C2E0913301FF27EE0FFF1F0E
S1134CA0E552F94F00811181D801ED91FC91F0801A
S1134CB0C090F506D090F606CF010E94870320E04D
S1134CC09091B901891708F421E0222359F00E9438
S1134CD0D003F801808191810E94EB03C8010E94F6
S1134CE00A046CC08091BA01D801ED91FC9188232B
S1134CF081F0A091F602B091F70284E301900D9245
S1134D008150E1F760E0F801808191810E947B1776
S1134D1022C289819A818787892F99278687D8011A
S1134D20ED91FC91119784858F7384874D915C91EB
S1134D30DA011196FD018181FA0121819927982FC9
S1134D40882733272062822B932B8183892F9927ED
S1134D50FD0181838091320188608093320180FF5C
S1134D600BC0D801ED91FC91848580648487809187
S1134D7032018E7F80933201D801ED91FC91C6827D
S1134D808D2D9927878381E78387B3EFFB0E4F2D02
S1134D905527BF0182E00E948C109927882331F4A3
S1134DA080913201806180933201D5C1823009F053
S1134DB0D2C1D801ED91FC9189E280830E94D10196
S1134DC0CAC18091BA01882309F0C5C1AA24BB24B1
S1134DD02FEFE22EF22E9FEF892E992ECC24DD2484
S1134DE049C0022F112783E0000F111F8A95E1F7B4
S1134DF0035E1D4FF80122813381FFEF2F3F3F07F0
S1134E00B1F180915204909153042817390779F134
S1134E10D8018D919C910E94A700BC01F8014481A6
S1134E205581480F591F208131818091F506909159
S1134E30F6062817390779F48FB7F894992724814F
S1134E4035813093F8062093F70627812093FA06DC
S1134E508FBF4A010CC0F8018781882341F4623373
S1134E60710528F44E155F0510F458017A01089471
S1134E70C11CD11C2C2D8091D801C81608F4B1CFC7
S1134E80FFEFEF16FFEFFF0609F472C02FEF821653
S1134E902FEF920691F08091FA06882341F08091D9
S1134EA0F7069091F8060A96E816F90630F0C7015D
S1134EB00F968815990508F05BC080915907909169
S1134EC05A07A0915B07B0915C070196A11DB11D23
S1134ED08093590790935A07A0935B07B0935C079C
S1134EE08091F5069091F6060E948F008F3F81F025
S1134EF0282F33278BE090E0289FF001299FF00DA5
S1134F00389FF00D1124E85EFC4F8581877F8583EF
S1134F10D5018D919C910E94C000F5018081918101
S1134F200E948F008F3F41F0EBE08E9FF00111242F
S1134F30E85EFC4F128611862FB7F8943327D5010B
S1134F408D919C919093F6068093F506F5018481EA
S1134F5095819093F8068093F70687818093FA06EB
S1134F602FBFC4018E199F09459710F00E94B219F2
S1134F7080913B01882361F4FFEF8F16FFEF9F06BA
S1134F8039F42FEFE2162FEFF20611F00E94D1014F
S1134F9010923B01E0C080913A01882309F0DBC004
S1134FA0E091B902F091BA0210828091F5069091D5
S1134FB0F606E091B902F091BA028283892F99270B
S1134FC081838091BA01882329F08091F70690911A
S1134FD0F80620C08091F5069091F6060091F70638
S1134FE01091F8063FEF8F3F930781F4E091B902E7
S1134FF0F091BA020483812F99278383E091B90247
S1135000F091BA028081806880830CC00E94A7005E
S1135010800F911FE091B902F091BA028483892F25
S113502099278383E1E8CE2EE2E0DE2E68E0C60114
S11350300C970E941C0275E0E72EF12CE80EF91E75
S1135040882440E000E010E06BE0A62EB12C53E091
S1135050952E8091370199270196800F911F6AE060
S113506070E00E94992C9C0199278A9DD0018B9D08
S1135070B00D9A9DB00D1124A85EBC4FFD01858131
S1135080992780FF15C081FF13C08D919C911197C2
S1135090499DB00111246E0D7F1DFB018183892F71
S11350A099278083FD018681FB0182834F5F822ED5
S11350B00930110521F00F5F1F4F473050F28092E5
S11350C03701809136018F5F809336018150F6015C
S11350D08183842F8F70809381028FEF80937B0272
S11350E080937C0280E78093800283E0489FC00124
S11350F01124895F482F552765E772E083E00E94F9
S11351008C109927882321F481E080933A0123C0ED
S1135110843009F5109238011EC081E080930E019D
S113512010922D0137989CCC80912C01E82EFF24FD
S113513087017ACC81E080930D0110922501809340
S1135140280181E10E946801DBCC80912401E82ED2
S1135150FF248701B9CC22960FB6F894DEBF0FBEA8
S1135160CDBFDF91CF911F910F91FF90EF90DF9012
S1135170CF90BF90AF909F908F90089580915407E7
S11351808F3FB1F0282F3327F901E552FE4F80817C
S1135190809354078F3F11F4809368078FEF8083C7
S11351A02F3F31F0822F0E94502181E090E008953A
S11351B080E090E00895CFEFD0E1DEBFCDBF1FB710
S11351C0F8944FE150E06FEF70E08BED91E00E94B6
S11351D0532C8FEF809354078093680781E08EBD32
S11351E088E080BF83E083BF8CB59DB54AE72CB5CA
S11351F03DB52817390708F44150442311F0C9017B
S1135200F6CF92B782B78917E9F32CB53DB592B7BB
S113521082B78917E9F38CB59DB5821B930B409631
S1135220F5E096958795FA95E1F790935607809364
S1135230550713BE83B78EBD8EB580BF12BE1DBC8D
S11352401CBC8FEF86BF86B780937C0080B79927FC
S113525087709070892BD1F7D29AD19AD09ADA9A22
S1135260D99AD89A15BA8FEF84BBD498DC9816B81B
S11352701DBC1CBC87B7846087BF8EB5887F8460E3
S11352808EBD80E285BF0E94BE288823E1F710927C
S113529006031092B901EAE6F7E087E094E081930F
S11352A09193049627E0E238F207C9F78CE08093E3
S11352B0020310926007EAE3F4E089E694E0819344
S11352C09193C49624E0E235F207C9F78CE0809309
S11352D003031092B4021092380110923901109213
S11352E0590710925A0710925B0710925C071092AC
S11352F0BA018FEF9FEF9093F6068093F506109214
S1135300F8061092F7061092F9061092FA06109217
S1135310D8018FB7F894992720910601309107019D
S11353208FBF30935304209352046AE185E792E0DF
S11353300E941C029093BA028093B90282ED93E01A
S11353409093F7028093F6028FB7F89499272091EF
S11353500601309107018FBF3093FE012093FD01B8
S11353601092CF01EDE1F3E010823B9683E0EB383D
S1135370F807D1F780E094E0909373018093720171
S113538010927C01109274011092750110927601B2
S113539010927701109278011092790110927A019B
S11353A010927B01109217031092060410921603B8
S11353B01092D901109287038FEF80931C02EBEBBC
S11353C0F1E08FEF9FEF918380831282339621E087
S11353D0E73CF207C1F70E94DA006093DA06809195
S11353E00001909101010196AA27BB278093AF0287
S11353F09093B002A093B102B093B20280B78860D8
S113540080BF8BE083BF86EE81BF87B7826087BF92
S11354100E94C0068FE197E0909371018093700120
S11354208E98B89A8C988FEF8093BB02109259048F
S113543010925A0410925B0410925C04B89AD69AA3
S1135440D59A8FB7F89499272091060130910701D6
S11354508FBF3093F5022093F402809108019927BD
S11354609093AA028093A9028FE1809354048AE165
S11354708093680481E080931902109262078093FC
S1135480AC02109266040E94BE288823E1F7812FA3
S113549099278FBF789483E090E090935807809386
S11354A05707D89884E08093D00181E08093D1019C
S11354B048EE53E060E070E00E9480040E942112F4
S11354C08FB7F894482F552749C087B79927837019
S11354D09070892B19F4E5E0F0E013C080B79927A8
S11354E087709070892BD1F781B792B7891B8C3064
S11354F030F082B7853F18F4E3E0F0E002C0E2E068
S1135500F0E087B7887BC1F480917D008B7FA1F4A4
S11355106E9912C08AB190919A00892B807C61F4B3
S11355208091740082FD08C0379B03C081E090E045
S113553005C085E090E002C080E090E025B78E17BA
S113554008F4E82FFF27E653FF4FC895E02D237E8C
S11355502062E22BE5BF78948895F89480915407F3
S11355608F3F09F4B2CF282F3327F901E552FE4FBC
S11355708081809354078F3F11F4809368078FEFE5
S113558080832F3F09F4A1CF4FBF822F0E94502167
S113559097CFACE2B0E0EFECFAE20C94CE2C222EE2
S11355A0332E442E552E662E772E882E992EFE01EC
S11355B03196A8E01192AA95E9F729823A824B82A2
S11355C05C826D827E828F829886FE013996B8E075
S11355D01192BA95E9F7A986BA86CB86DC86ED8660
S11355E0FE860F87188B89819A81AB81BC8189A73C
S11355F09AA7ABA7BCA77C018D018FEF9FEFA0E01A
S1135600B0E0E822F9220A231B2389A59AA5ABA5B9
S1135610BCA51D014424552489859A85AB85BC8588
S11356208DA39EA3AFA3B8A75C016D018FEF9FEF7D
S1135630A0E0B0E0A822B922CA22DB228DA19EA15B
S1135640AFA1B8A53D0188249924C801B701A601DA
S113565095010E945A2C69A37AA38BA39CA3C80129
S1135660B701A40193010E945A2C7B018C01C20151
S1135670B101A60195010E945A2C5B016C01C20183
S1135680B101A40193010E945A2C3B014C01EA0C84
S1135690FB1C0C1D1D1D89A19AA1ABA1BCA19D01E0
S11356A0442755272E0D3F1D401F511F2A153B052A
S11356B04C055D0540F480E090E0A1E0B0E0680EA8
S11356C0791E8A1E9B1ECA01AA27BB27860D971D19
S11356D0A81DB91D8D8F9E8FAF8FB8A3A901332745
S11356E0222789A19AA1ABA1BCA1A070B070280FF8
S11356F0391F4A1F5B1F298F3A8F4B8F5C8FA98CF0
S1135700BA8CCB8CDC8CED8CFE8C0F8D18A1FE0139
S1135710719698E011929A95E9F7ED8AFE8A0F8BBB
S1135720188F2D813E814F8158856DA17EA18FA157
S113573098A50E945A2C3B014C012D853E854F852E
S1135740588969A57AA58BA59CA50E945A2C2D89F8
S11357503E894F89588D260F371F481F591F260D24
S1135760371D481D591D2D8B3E8B4F8B588F6D88CF
S11357707E888F88988C2A2D3B2D4C2D5D2D662D8F
S1135780772D882D992DE2E1AC960C94EA2CA0E1BA
S1135790B0E0EDECFBE20C94CE2C222E332E442E02
S11357A0552E662E772E882E992E002309F466C076
S11357B088E0FE01319611928A95E9F729833A83AC
S11357C04B835C836D837E838F829887E0E2E01B4A
S11357D01E16CCF52D813E814F815885602F772789
S11357E067FD7095DA01C901062E04C0B695A79528
S11357F0979587950A94D2F78D879E87AF87B88B44
S113580004C0220F331F441F551FEA95D2F7898124
S11358109A81AB81BC8104C0B695A795979587956D
S11358206A95D2F7282B392B4A2B5B2B29873A8789
S11358304B875C8729843A844B845C846D847E84A2
S11358408F8498881BC01D861E861F86188A2E2F5B
S1135850332727FD3095309521953F4F8D819E81CB
S1135860AF81B88504C0B695A795979587952A9575
S1135870D2F789879A87AB87BC87DCCF222D332D5B
S1135880442D552D662D772D882D992DE2E16096B6
S11358900C94EA2CFB01DC0102C001900D924150F2
S11358A05040D8F70895DC0101C06D934150504039
S11358B0E0F70895629FD001739FF001829FE00D8D
S11358C0F11D649FE00DF11D929FF00D839FF00D7B
S11358D0749FF00D659FF00D9927729FB00DE11D27
S11358E0F91F639FB00DE11DF91FBD01CF01112404
S11358F00895991B79E004C0991F961708F0961B28
S1135900881F7A95C9F780950895AA1BBB1B51E19E
S113591007C0AA1FBB1FA617B70710F0A61BB70B1B
S1135920881F991F5A95A9F780959095BC01CD01C0
S1135930089597FB092E07260AD077FD04D0E5DFEA
S113594006D000201AF4709561957F4F0895F6F7FC
S1135950909581959F4F0895A1E21A2EAA1BBB1B17
S1135960FD010DC0AA1FBB1FEE1FFF1FA217B30727
S1135970E407F50720F0A21BB30BE40BF50B661F3D
S1135980771F881F991F1A9469F760957095809501
S113599090959B01AC01BD01CF0108952F923F92D8
S11359A04F925F926F927F928F929F92AF92BF922B
S11359B0CF92DF92EF92FF920F931F93CF93DF93D7
S11359C0CDB7DEB7CA1BDB0B0FB6F894DEBF0FBE34
S11359D0CDBF09942A88398848885F846E847D8481
S11359E08C849B84AA84B984C884DF80EE80FD8083
S11359F00C811B81AA81B981CE0FD11D0FB6F894F9
S10F5A00DEBF0FBECDBFED010895FFCF47
S1135A0C0100FFFFFFFF01007DFFFFFF0201010505
S1095A1C018000000000FF
S9030000FC
