S01800006275696C642F6D6963617A2F6D61696E2E73726563E5
S11300000C9465010C9490090C949A090C94A4091D
S11300100C94AE090C94B8090C94C2090C94CE113A
S11300200C94CC090C9484010C9484010C94B11CA0
S11300300C945E2C0C945A090C9470090C942D0E9B
S11300400C9449090C947D200C94790B0C94840134
S11300500C94F50B0C9484010C9484010C9484018D
S11300600C9465090C944B0D0C942A0D0C94350DCD
S11300700C94400D0C945E0D0C940D0D0C948401A5
S11300800C941F0D0C9484010C94840114211821E8
S113009027212B2148214F2153210F22322249228B
S11300A00B273E279627A82780288A288E28912860
S11300B0B6280C217929BF2987298A298D299029D5
S11300C09329962900002110422063308440A550D2
S11300D0C660E770088129914AA16BB18CC1ADD18A
S11300E0CEE1EFF13112100273325222B552944232
S11300F0F772D662399318837BB35AA3BDD39CC3DA
S1130100FFF3DEE36224433420040114E664C7747D
S1130110A44485546AA54BB528850995EEE5CFF529
S1130120ACC58DD55336722611163006D776F666D1
S11301309556B4465BB77AA719973887DFF7FEE779
S11301409DD7BCC7C448E5588668A778400861189D
S113015002282338CCC9EDD98EE9AFF948896999C9
S11301600AA92BB9F55AD44AB77A966A711A500A71
S1130170333A122AFDDBDCCBBFFB9EEB799B588B19
S11301803BBB1AABA66C877CE44CC55C222C033CBD
S1130190600C411CAEED8FFDECCDCDDD2AAD0BBD69
S11301A0688D499D977EB66ED55EF44E133E322E11
S11301B0511E700E9FFFBEEFDDDFFCCF1BBF3AAFB9
S11301C0599F788F8891A981CAB1EBA10CD12DC117
S11301D04EF16FE18010A100C230E32004502540AD
S11301E046706760B9839893FBA3DAB33DC31CD30D
S11301F07FE35EF3B1029012F322D23235421452FD
S113020077625672EAB5CBA5A89589856EF54FE558
S11302102CD50DC5E234C324A0148104667447644C
S113022024540544DBA7FAB79987B8975FE77EF7AC
S11302301DC73CD7D326F2369106B016576676769C
S1130240154634564CD96DC90EF92FE9C899E98978
S11302508AB9ABA94458654806782768C018E108EC
S11302608238A3287DCB5CDB3FEB1EFBF98BD89B4C
S1130270BBAB9ABB754A545A376A167AF10AD01A3C
S1130280B32A923A2EFD0FED6CDD4DCDAABD8BAD98
S1130290E89DC98D267C076C645C454CA23C832C8C
S11302A0E01CC10C1FEF3EFF5DCF7CDF9BAFBABFEC
S11302B0D98FF89F176E367E554E745E932EB23EDC
S11302C0D10EF01E00081C18141011241FBECFEF0D
S11302D0D0E1DEBFCDBF11E0A0E0B1E0E2E5FEE594
S11302E000E00BBF02C007900D92AA31B107D9F705
S11302F017E0AAE1B1E001C01D92AC3BB107E1F700
S11303000E94F5290C94282F0C9400008FB7F894C0
S1130310992708958FBF089590918202992339F106
S11303206091C70351E040E0892F8523A1F0E42FB9
S1130330FF27EE0FFF1FEE5AF84F20813181118203
S11303401082852F80959823442329F42A5F364010
S113035039F460E005C04F5F483028F4550FE4CF0E
S1130360550F41E0E1CF909382026093C703089553
S1130370282F9FB7F894E82FFF27E755FE4F808179
S11303808F3F81F4E0919E07E21771F40BC0209334
S1130390890704C0FF27E755FE4F208320939E075B
S11303A020E007C025E005C0809189078F3F91F7C1
S11303B0EECF892F99278FBF822F9927089584E044
S11303C00E94B8019927089585E00E94B8019927F1
S11303D008958FB7F894992760931A018FBF82E02C
S11303E00E94B801089586E00E94B80199270895F3
S11303F087E10E94B801992708951F931FB7F894C5
S113040080919A07882341F48DE00E94B8018823E3
S113041019F481E080939A07812F99278FBF1F9148
S11304200895382FFA01422F2D3118F082E090E020
S113043008956683872F9927858333872187809141
S11304402B0190912C01892B19F085E090E00895FF
S11304502FB7F894332785E080932E0110922F0153
S1130460F0932A01E093290182E090E090932C011B
S113047080932B011092310110923001445F40931C
S11304802D012FBF9FB7F89480919E02882311F00D
S113049020E006C081E080939E0210929F0221E03A
S11304A0892F99278FBF222329F00E94FD0180E024
S11304B090E0089510922C0110922B0181E090E0BD
S11304C00895EF92FF921F93CF93DF93182F7B0130
S11304D0E82FFF27EE0FFF1FEE5AF84F118210820C
S11304E010921901A0915207B0915307109721F06F
S11304F08091820280FF11C081E08093190103C0C2
S11305008BE10E94B8011123E1F48AEFE81686E03A
S1130510F806B9F41092C70314C0FD01359624817E
S11305203327ED016D817727762F662781819927FF
S1130530682B792BAD0186810E941102882319F35F
S1130540DFCFDF91CF911F91FF90EF900895AC0121
S1130550E1ECF2E080E090E09C01858180FF05C041
S1130560808191818417950741F0C90101963B96DA
S11305708A30910589F72FEF30E0C90108950E9470
S1130580A7028F3F91F099272BE030E0829FF00182
S1130590839FF00D929FF00D1124EF53FD4F858141
S11305A081FF03C08781908508958FEF9FEF0895A1
S11305B00E94A7028F3F19F481E090E00895282F4C
S11305C033278BE090E0289FF001299FF00D389F9E
S11305D0F00D1124EF53FD4F85818860858380E001
S11305E090E008952F923F924F925F926F927F9284
S11305F08F929F92AF92BF92CF92DF92EF92FF922F
S11306000F931F93CF93DF93CDB7DEB729970FB620
S1130610F894DEBF0FBECDBF6FB76983F894209006
S11306207A0230907B0240907C0250907D026624D6
S113063077248824EEE4AE2E73E8B72ECC24DD2490
S1130640EE24FF2400E010E0222D332D442D552DFF
S1130650662D772D882D90E00E94EC2C2A833B8315
S11306604C835D836E837F8388879987822E932E44
S1130670A42EB52E2401350100E20E94EA2DA22EFB
S1130680B32EC42ED52EA3019201569547953795C6
S113069027952A0D3B1D4C1D5D1D57FF05C05F7737
S11306A02F5F3F4F4F4F5F4F20937A0230937B026F
S11306B040937C0250937D02E9818E2F99278FBF4E
S11306C0CA01B90129960FB6F894DEBF0FBECDBF9B
S11306D0DF91CF911F910F91FF90EF90DF90CF901A
S11306E0BF90AF909F908F907F906F905F904F904E
S11306F03F902F9008950E94F202DC01CB010895EF
S1130700EF920F931F93AE2D99E0899FF00111246E
S1130710E05DFC4F408351836283738304831583BC
S113072026833783A17080858E7F8A2B82608087A1
S11307308BE00E94B8011F910F91EF9008957FB74D
S1130740F89462B720918B0130918C0140918D0116
S113075050918E0106B601FE0FC081B792B7280FE3
S1130760311D411D511D2F5F3F4F4F4F5F4F290FCB
S1130770311D411D511D04C0260F311D411D511D48
S1130780872F99278FBFCA01B90108959C016E5F15
S11307906D3118F080E090E008950C9611F0C901D5
S11307A00E960895282F9FB7F894662349F0E82FF2
S11307B0FF27E05BFB4F8081882311F021E006C016
S11307C0E22FFF27E05BFB4F608320E0892F99270E
S11307D08FBF822F99270895E82F8FB7F894282F79
S11307E0332790E0FF27E05BFB4F8081861709F4F5
S11307F091E02FBF892F9927089560E080E00E943F
S1130800EC0399270895882311F06E9A08956E9841
S11308100895882311F06F9A08956F98089580E0E1
S11308200E940304BA9ABB98B99A6C9A80E00E9419
S11308300904709A6B986A98689881E00E9403048E
S113084008951F93182F81E00E9403041FB9779B1A
S1130850FECF8FB199271F9108958F929F92AF92E7
S1130860BF92CF92DF92EF92FF920F931F93CF9399
S1130870DF938FB7F8949927C0909607D090970785
S11308808090C5039090C603C091B002D091B1028C
S11308902091530130915401FAE0AF2EB12CAC0EEB
S11308A0BD1E2A153B0508F459018FBF7401EC0ED7
S11308B0FD1E86010C0F1D1F14C0C114D10419F0B4
S11308C0F801808101C080E00E9421048114910418
S11308D011F0F701808321960894E11CF11C0F5F4D
S11308E01F4FC5010197C817D90738F381E00E944B
S11308F009049FB7F894C114D10431F0CC0EDD1E65
S1130900F60180818FB901C01FB8D093B102C093A2
S1130910B002892F99278FBF80E090E0DF91CF91BB
S11309201F910F91FF90EF90DF90CF90BF90AF9009
S11309309F908F9008952FB7F894332750935401C4
S11309404093530190939707809396077093C6033F
S11309506093C5031092B1021092B0022FBF452BD1
S113096029F08FB10E942D049927089587E00E94F1
S1130970B80180E090E008958FB7F8949927109219
S113098052048FBF08950F931F93CF93DF93EC010D
S1130990892BE9F02091EF063091F0068FEF2F3F7D
S11309A03807A9F080919001813019F419821882D6
S11309B00BC00091F1061091F206C9010E94BF021A
S11309C0080F191F1983088380E090E002C081E0BA
S11309D090E0DF91CF911F910F910895CF92DF9214
S11309E0FF920F931F93CF93DF936C01F0908F01CD
S11309F06091A60270E08C01005F1F4F2CC0D601ED
S1130A001C96462F43705527E60128893327322F39
S1130A102227F80181819927282B392BFA01EE0F1F
S1130A20FF1FEE0FFF1FE40FF51FE553FE4F8081FC
S1130A3091812817390769F4ED019E818281891714
S1130A4041F499818481891721F49F8183818917D5
S1130A5021F07F5F6F5F7F1591F6872F9927DF91D4
S1130A60CF911F910F91FF90DF90CF9008958091C7
S1130A703D01E82FFF27EE0FFF1FEF52F94F0190C2
S1130A80F081E02D20913F01222351F08F5F80936C
S1130A903D018C3011F410923D01215020933F010F
S1130AA0CF010895AC012091A3022C3018F081E00D
S1130AB090E0089580917F02682F620F712D711D5F
S1130AC0FB016C30710508F03C97EE0FFF1FEF5CE3
S1130AD0FB4F518340832F5F2093A30280E090E07B
S1130AE00895AC012091A2022C3018F081E090E02E
S1130AF0089580919307682F620F712D711DFB017A
S1130B006C30710508F03C97EE0FFF1FE056F84F6C
S1130B10518340832F5F2093A20280E090E00895E8
S1130B209C01685F6D3118F080E090E008950C96A8
S1130B3011F0C90144960895FC0180899927982FE2
S1130B40882721893327822B932B0895FC01278141
S1130B503085C901A3E0880F991FAA95E1F7820F98
S1130B60931F860F971F6AE070E00E94A82E70877B
S1130B7067830895FC0161859285662329F48AE0E0
S1130B80989FB001112409C077278AE0989FC0017B
S1130B9011240E94BC2E11861286CF010E94A60544
S1130BA008954FB7F8945527FC01B3E0F695E795FF
S1130BB0BA95E1F7E450FC4F8770907021E030E083
S1130BC002C0220F331F8A95E2F78081822B808333
S1130BD04FBF08959FB7F89480912E048A3011F086
S1130BE020E006C020E080913C02843009F421E03A
S1130BF0892F99278FBF222349F08FE00E94B801E3
S1130C008FB7F89499271092260106C08FB7F894ED
S1130C10992721E0209326018FBF08952FB7F894D8
S1130C2033278CB95E9A2FBF0895FC0161157105B5
S1130C3019F481E090E008958091960290919702D2
S1130C40892B19F085E090E008957093F80660937D
S1130C50F706F0939702E0939602109272021092B4
S1130C60710281E0809373025E9A569A808121E03A
S1130C7030E030937202209371020E940E0680E0ED
S1130C8090E00895809137018E7F809337018EE73D
S1130C908093CA0161E070E08AEC91E00E9415063D
S1130CA099270895DF92EF92FF920F931F938FB7C6
S1130CB0F894282F3327D22E91B782B746B79817C6
S1130CC011F041FF02C02FBF6AC08091A7028823A0
S1130CD0E1F10E949F03E0904C04F0904D040091D8
S1130CE04E0410914F042091A0013091A101409134
S1130CF0A2015091A3016E197F09800B910B621719
S1130D0073078407950720F01092A70271E01EC0B4
S1130D102E0D3F1D401F511F80918B0190918C011E
S1130D20A0918D01B0918E01281B390B4A0B5B0BEE
S1130D30273E31054105510540F4822F223010F041
S1130D4070E005C070E082E002C070E086EE682FBB
S1130D50615000B601FCFDCF82B7681709F46F5FDC
S1130D6020918B0130918C0140918D0150918E0125
S1130D70DA01C9010196A11DB11D860F911DA11DA6
S1130D80B11D82179307A407B50710F4622F60956D
S1130D9061BFDFBE772319F08AE00E94B8011F917A
S1130DA00F91FF90EF90DF900895AFB7F894BB27B1
S1130DB0E1E0E093A70260934C0470934D048093A8
S1130DC04E0490934F042093A0013093A1014093CB
S1130DD0A2015093A301AFBF0E94520608959BE065
S1130DE0899FF0011124EF53FD4F718360831282B8
S1130DF01382148285E085831682108617820895F3
S1130E004F925F927F928F929F92AF92BF92CF92B6
S1130E10DF92EF92FF920F931F93CF93DF93CDB79F
S1130E20DEB722970FB6F894DEBF0FBECDBF782E83
S1130E30C62E882E99248BE090E0889EF001899E2E
S1130E40F00D989EF00D1124EF53FD4F858182FF24
S1130E5003C062838B7F85838281DC2CD81AC28293
S1130E6083818F5F8383DD2021F084818D0D815008
S1130E70848383812481820F912D911D039724F40F
S1130E8022E02D1508F050C0A080B18011EC412E55
S1130E9012E0512EF201808191818A159B05D1F5D2
S1130EA0858180FF37C08260858363811481160F3A
S1130EB0133008F413E0F201068189E0089F700101
S1130EC011247727882799272AEF30E040E050E063
S1130ED00E947D2E212F3327442755270E94CF2E91
S1130EE0C701820F911D6AE070E00E94BC2EF201DE
S1130EF0668313821482662341F0772784EC99E099
S1130F000E94BC2E6B3F710510F06FEF7FEFC201A2
S1130F100E94A6052BE030E0420E531E3FE243162A
S1130F2033E0530609F0B6CF8AE08D15B8F48BE0B0
S1130F3090E0889EF001899EF00D989EF00D11249A
S1130F40EF53FD4FFA83E98360817181872D0E94FD
S1130F50EF06E981FA81C28281E0838322960FB68B
S1130F60F894DEBF0FBECDBFDF91CF911F910F91DB
S1130F70FF90EF90DF90CF90BF90AF909F908F90B5
S1130F807F905F904F90089580E090E0E6ECF2E06F
S1130F909C01808180FF08C0C90101963B968A307C
S1130FA09105B1F72FEF30E0C9010895982FAFEF05
S1130FB060E070E040E050E0E6ECF2E08081282F51
S1130FC0332720FF0BC021FF09C023FD07C0228166
S1130FD033812617370710F0A42FB9014F5F5F4FF5
S1130FE03B964A30510551F7892F9927681779079D
S1130FF018F48FEF90E008958A2F99270895AC0193
S11310003091A7018FEF4F3F580711F020E012C035
S1131010832F99270895E22FFF2783E0EE0FFF1F08
S11310208A95E1F7EB51FE4F8081918184179507F2
S113103019F02F5F231779F7822F99270895FC0160
S11310408081448555274F7050709A01220F331FB9
S1131050240F351F821B8F50992708951F93CF9318
S1131060DF93162FC0E0D0E06AE10E94C603FC01C2
S113107080818123811711F4C1E0D0E0CE01DF919A
S1131080CF911F91089580E88093A40110923B02B0
S113109010929107109288071092E2010895CF935D
S11310A0DF93FC0115A6DC019E96ED011B821A82DA
S11310B0198280E886A7DF91CF9108958FB7F894BD
S11310C06091BA027091BB022CB53DB506B602FE22
S11310D004C06F5F7F4F2CB53DB599278FBF88271C
S11310E09927CB017727662744275527622B732B33
S11310F0842B952B0895EF92FF920F931F930E94D8
S11311005E087B018C0120918C0230918D0240910C
S11311108E0250918F028091840290918502A09159
S11311208602B0918702820F931FA41FB51FE21697
S1131130F3060407150730F082179307A407B507D1
S113114058F005C082179307A407B507E0F5E81621
S1131150F9060A071B07B8F59C01AD012E193F09D2
S1131160400B510B213060E8360760E0460760E031
S1131170560768F180E090E8A0E0B0E0E80EF91EC0
S11311800A1F1B1FE0928C02F0928D0200938E02C4
S113119010938F0280E090E8AFEFBFEFE80EF91EE6
S11311A00A1F1B1F205030484040504020938402A7
S11311B030938502409386025093870220E030E802
S11311C040E050E014C020E030E040E050E0809384
S11311D08C0290938D02A0938E02B0938F02109292
S11311E08402109285021092860210928702A9014D
S11311F0B7012CB53DB5C9018E199F090396841713
S1131200950720F0B9016D5F7F4F02C0640F751F11
S11312106115710511F461E070E0615070407BBDAF
S11312206ABD80E186BF87B7806187BF1F910F9138
S1131230FF90EF9008950F931F930FB7F894112721
S113124060938C0270938D0280938E0290938F0230
S11312502093840230938502409386025093870240
S11312600E947B080FBF1F910F91089597B79F7D30
S113127097BF90E296BF882319F08EB5806402C0B0
S11312808EB58F7B8EBD87B7806287BF80E090E08C
S113129008951F920F920FB60F9211248F9383B764
S11312A083BF00B600FCFDCF8F910F900FBE0F904F
S11312B01F90189578941F920F920FB60F921124D5
S11312C00F900FBE0F901F90189578941F920F9255
S11312D00FB60F9211240F900FBE0F901F90189508
S11312E078941F920F920FB60F9211242F933F936D
S11312F08F939F932FB7F89433278091BA029091DC
S1131300BB0201969093BB028093BA022FBF9F91B8
S11313108F913F912F910F900FBE0F901F901895B2
S11313201F920F920FB60F9211240F900FBE0F90C1
S11313301F9018951F920F920FB60F9211240F90C1
S11313400FBE0F901F9018951F920F920FB60F9219
S113135011240F900FBE0F901F9018951F920F929B
S11313600FB60F9211240F900FBE0F901F90189577
S11313701F920F920FB60F9211240F900FBE0F9071
S11313801F9018951F920F920FB60F9211240F9071
S11313900FBE0F901F9018951F920F920FB60F92C9
S11313A011240F900FBE0F901F901895E4ECF0E0FD
S11313B06927660FF11DE60FF11DC895982F802D42
S11313C03196C89590250895982F809132018823ED
S11313D089F5992379F531E03093320180910C013C
S11313E08093330120912701822F81708093A6017D
S11313F080911101909112019093350180933401F1
S1131400809128018093360132273170267EE32FA4
S1131410FF27EE0FFF1FE35FFE4F808191819093C2
S1131420120180931101232B2093270182E10E9452
S1131430B80108958091270180FF02C08B7F01C00D
S11314408D7F8093270108950F931F93082F162FE4
S113145080913C028130D9F0813038F0823009F437
S11314604AC0833009F00EC159C0002309F43EC1BB
S11314701092EB061092EA06109230041092F906CC
S1131480109274021092BD021092BC021FC100237C
S113149009F02CC18091BC029091BD020E94D60932
S11314A09093BD028093BC0282E080933C0210932F
S11314B0F906143409F0E6C00BC18695869503C07D
S11314C0809127018695817009F0DCC08091270105
S11314D0992311F0846001C0826080932701809178
S11314E02701877E886080932701109228018FEF5F
S11314F080930C01FBC0002309F0C4C06093740204
S11315008091BC029091BD020E94D6099093BD02C5
S11315108093BC0283E080933C02E8C08091300455
S11315208F3F09F4AFC0002309F447C0823008F4A8
S1131530A9C0E091EA06EE2309F4D1C04E2F415030
S1131540E42FFF27E651F94F82819927382F22276C
S1131550442311F4E2E002C0E42FE150FF27E651F6
S1131560F94F82819927282B392B8091BC029091C5
S1131570BD022817390709F085C080E00E94E409FC
S1131580309174028091A8022091A902982F9F5F44
S1131590963008F090E0921709F474C0E82FFF2702
S11315A0E855FD4F32838F5F8093A802863010F098
S11315B01092A8020E94FD0165C0823008F44EC05A
S11315C0E091EB06FF27E651F94F8281482F55271A
S11315D0342F20912701822F8695869586958370D6
S11315E099278130910519F00297F9F40EC0277EEE
S11315F0206120932701442311F485E001C080E099
S11316008093280130930C0110C080912801843309
S113161060F4E0911101F0911201E80FF11D408393
S1131620809128018F5F809328018091EB06E82F39
S1131630FF27E651F94F62818F5F8093EB06833079
S113164010F01092EB0677278091BC029091BD02B6
S11316500E94D6099093BD028093BC028091EA0651
S1131660E82FFF27E651F94F12838F5F8093EA0634
S1131670833010F01092EA06809130048F5F8093DB
S1131680300434C01092EB061092EA0610923C0229
S1131690109230041092F906109274021092BD0256
S11316A01092BC02809137018D7F8093370181E0D5
S11316B00E94E40980912601882331F084E080931C
S11316C03C020E94EA0512C0002381F081E023CF8E
S11316D080912701982F917080FDEFCEF1CE8091FB
S11316E0EE069927382F222742E036CF1F910F911B
S11316F008951F920F920FB60F9211242F933F93C8
S11317004F935F936F937F938F939F93AF93BF9305
S1131710EF93FF935F9B3DC06CB1E091BE02F091EB
S1131720BF023097F9F08091980790919907E80FDC
S1131730F91F6083019690939907809398072091ED
S1131740BA073091BB078217930718F11092BF02B2
S11317501092BE028091FD038330D9F05798109205
S1131760FD0317C06E3719F460E081E010C080916A
S113177037016D3721F48260809337010AC081FFFD
S113178005C08D7F8093370180E2682780E00E9446
S1131790240AFF91EF91BF91AF919F918F917F9117
S11317A06F915F914F913F912F910F900FBE0F90CA
S11317B01F901895982F8D57823068F480913701C7
S11317C081608093370180E2892780932F048DE71D
S11317D08093CA0102C09093CA0161E070E08AEC70
S11317E091E00E9415069927089578941F920F920C
S11317F00FB60F921124FF920F931F932F933F93D1
S11318004F935F936F937F938F939F93AF93BF9304
S1131810CF93DF93EF93FF93209171023091720283
S11318208091F7069091F8062817390780F4E09123
S11318309602F0919702E20FF31F80812F5F3F4FD2
S113184030937202209371020E940E06D0C010924F
S11318509702109296021092730256988091370163
S113186080FF0EC08E7F8093370180912F04809378
S1131870CA0161E070E08AEC91E00E941506B7C0ED
S113188080912E04843009F494C0853040F4823071
S113189021F18330B8F5813009F0A4C00DC0863041
S11318A009F495C0863008F48BC0873009F496C0DB
S11318B0883009F097C099C080918B020E94DA0B9E
S11318C0182F83E080932E0460918B028091B807D7
S11318D09091B9070E94D60910C0809190070E9488
S11318E0DA0B182F83E080932E0460919007809187
S11318F0B8079091B9070E94D6099093B9078093CD
S1131900B8076EC0FFB6F894E0912F03FF27EE0FDF
S1131910FF1FE356FD4F80810E94DA0B082F1091C0
S11319202F03C12FDD27FE01EE0FFF1FE356FD4FEE
S113193060818091B8079091B9070E94D60990936D
S1131940B9078093B807209183022F5F2093830205
S1131950113039F580912E01E0912901F0912A018D
S1131960E80FF11DE0818F5F80932E0190912D018E
S1131970981730F482E080939E0240E050E002C069
S11319804E2F5527DE01AA0FBB1FFD01E456FD4F64
S11319908081823031F02F3F21F0A356BD4F4C930C
S11319A003C084E080932E04102F8F2D99278FBFBE
S11319B017C08091B8070E94DA0B182F85E00BC07E
S11319C08091B9070E94DA0B182F86E004C00E94A8
S11319D04206182F87E080932E0402C088E003C0DB
S11319E0112329F089E080932E040E94FD01FF91C8
S11319F0EF91DF91CF91BF91AF919F918F917F91A3
S1131A006F915F914F913F912F911F910F91FF9093
S1131A100F900FBE0F901F9018951F920F920FB644
S1131A200F9211248F9380919B0087FF02C08091B5
S1131A309C008F910F900FBE0F901F901895789473
S1131A401F920F920FB60F9211240F900FBE0F909A
S1131A501F90189578941F920F920FB60F9211242D
S1131A600F900FBE0F901F90189578941F920F92AD
S1131A700FB60F9211240F900FBE0F901F90189560
S1131A8078941F920F920FB60F9211240F900FBEED
S1131A900F901F90189578941F920F920FB60F9283
S1131AA011248F939F9380918800909189009F9136
S1131AB08F910F900FBE0F901F90189578941F92DE
S1131AC00F920FB60F9211242F933F938F939F93EE
S1131AD02FB7F89433278091800290918102019668
S1131AE090938102809380022FBF9F918F913F91A9
S1131AF02F910F900FBE0F901F901895EF92FF92A9
S1131B000F931F9379018A01683018F048E050E080
S1131B1002C0462F5527BC0185E594E00E946D2E36
S1131B20E0923801F092390100933A0110933B019D
S1131B301F910F91FF90EF900895EF92FF920F93F2
S1131B401F93CF93DF937C01442309F477C0EC0106
S1131B500881198180918F01843009F046C0C80141
S1131B600E94EE0420918F01622F0E949C2E492F27
S1131B709217D8F5992359F48091A60299270196D2
S1131B8064E070E00E94BC2E8093A60229C080917C
S1131B90A602840F912D911D9C0123703070E901E0
S1131BA0CC0FDD1FCC0FDD1FC20FD31F019664E0E5
S1131BB070E00E94BC2EFC01EE0FFF1FEE0FFF1F12
S1131BC0E80FF91FC553DE4FE553FE4F85E0019042
S1131BD009928150E1F74F5F80918F014817B8F265
S1131BE080918F01815080938F0140918F0180916A
S1131BF0A602840F912D911D83709070D8011C96BC
S1131C00FC01EE0FFF1FEE0FFF1FE80FF91FE55356
S1131C10FE4FE80188899927982F88272989332737
S1131C20822B932B91838083ED018E818283898122
S1131C3084838F8183834F5F40938F01F701808179
S1131C4091810E945205C7010E947105DF91CF91D5
S1131C501F910F91FF90EF9008951F920F920FB66E
S1131C600F9211242F933F934F935F936F937F931E
S1131C708F939F93AF93BF93EF93FF9383B783BFE8
S1131C8000B600FCFDCF81B799270196AA27BB2790
S1131C9020918B0130918C0140918D0150918E01E6
S1131CA0280F391F4A1F5B1F20938B0130938C012F
S1131CB040938D0150938E0178940E945206FF91B7
S1131CC0EF91BF91AF919F918F917F916F915F91B0
S1131CD04F913F912F910F900FBE0F901F90189529
S1131CE00F931F93CF93DF93182F8FB7F894C82FB8
S1131CF0DD270C2F61E080E00E94D203882321F0CD
S1131D00CFBF85E090E024C0809105018823A1F431
S1131D1080911F01823081F409C082E080931F0109
S1131D20109205010E940F04B89AC0981093020102
S1131D3080E00FBF99270CC080911F01882369F3AD
S1131D408FB7F8949927109250048FBF81E0F1CF98
S1131D50DF91CF911F910F910895AF92BF92CF92CF
S1131D60DF92EF92FF920F931F9380911501909150
S1131D701601A0911701B0911801B695A7959795F2
S1131D8087958093350290933602A0933702B093DF
S1131D9038020E94F202E0903502F090360200917F
S1131DA0370210913802A80197010E94CF2E5B01DF
S1131DB06C01AE0CBF1CC01ED11EA0923502B092A5
S1131DC03602C0923702D09238021092E90680910E
S1131DD04A038D7F80934A030E949F03AB01BC0199
S1131DE0E1E0EE2E9601850182E00E9480031F91BE
S1131DF00F91FF90EF90DF90CF90BF90AF90089538
S1131E0080E890E0A0E0B0E0809315019093160183
S1131E10A0931701B09318010E94AD0E08950F937B
S1131E201F93182F0FB7F89461E080E00E94D2034B
S1131E30882371F510930201809105018823A9F587
S1131E4080911F01823089F586E00CC00E940F0446
S1131E5080911F01882349F481E080931F0110922F
S1131E60E30188E00E94B8012AC080918A028F3F72
S1131E7031F5E0910401EE2311F11CC0109203012D
S1131E8004C0FF27E657FD4F10821092040117C0CB
S1131E9081E090E002C0880F991F1A95E2F7209123
S1131EA01E01282B20931E010AC080911F01882344
S1131EB0E1F6CCCF809103018F3F19F7DFCF802F5C
S1131EC099278FBF80E090E01F910F91089581E0E2
S1131ED00E940F0F992708951F9383E00E94700EAC
S1131EE09927182F882319F083E00E940F0F812F60
S1131EF099271F910895CF93DF93EC010E94FF0768
S1131F00282F8091A7012817D1F0382F3150309312
S1131F10A70113C0822F9927A3E0880F991FAA95C0
S1131F20E1F7DC01AB51BE4FFC01E351FE4F88E009
S1131F3001900D928150E1F72F5F231758F38091A0
S1131F40EF069091F0068C179D07A1F48FEF9FEF99
S1131F509093F0068093EF061092F2061092F10629
S1131F601092F3061092F40681E08093450188E113
S1131F700E94B801DF91CF9108951F93CF93DF930F
S1131F80EC01162F80911401882319F5CE010E94CB
S1131F90FF07E82F8091A701E81748F4FF27B3E073
S1131FA0EE0FFF1FBA95E1F7EB51FE4F17838091B7
S1131FB0F406882311F0112349F08091EF069091E3
S1131FC0F0068C179D0729F4112319F088E10E946B
S1131FD0B801DF91CF911F910895AF92BF92CF9234
S1131FE0DF92EF92FF920F931F93CF93DF93809131
S1131FF09001882309F0E8C0CC24DD240FEF1FEF03
S11320009FEFA92EB92EEE24FF2445C0C22FDD2751
S113201083E0CC0FDD1F8A95E1F7CB51DE4F2A8197
S11320203B818FEF2F3F380799F1809149049091BC
S11320304A042817390761F1888199810E94BF02F7
S1132040BC014C815D81480F591F288139818091E1
S1132050EF069091F0062817390779F48FB7F894B2
S113206099272C813D813093F2062093F1062F812C
S11320702093F4068FBF5A010BC08F81882341F44B
S11320806233710528F44017510710F46E018A0178
S11320900894E11CF11C2E2D8091A701E81608F488
S11320A0B5CFEFEF0F3F1E0709F47DC0FFEFAF166A
S11320B0FFEFBF0691F08091F406882341F08091F0
S11320C0F1069091F2060A960817190730F0C80134
S11320D00F968A159B0508F066C080918C07909135
S11320E08D07A0918E07B0918F070196A11DB11D98
S11320F080938C0790938D07A0938E07B0938F07DE
S11321008091EF069091F0060E94A7028F3F81F024
S1132110282F33278BE090E0289FF001299FF00DB2
S1132120389FF00D1124EF53FD4F8581877F858300
S1132130F601808191810E94D802F601808191810B
S11321400E94A7028F3F41F0EBE08E9FF001112423
S1132150EF53FD4F128611862FB7F8943327F601FB
S1132160808191819093F0068093EF06848195811C
S11321709093F2068093F10687818093F4062FBF33
S1132180C501801B910B459770F080E890E0A0E0BA
S1132190B0E08093150190931601A0931701B093BA
S11321A018010E94AD0E80914501882359F4FFEF78
S11321B0AF16FFEFBF0631F40F5F1F4F19F087E131
S11321C00E94B80110924501DF91CF911F910F91A8
S11321D0FF90EF90DF90CF90BF90AF900895AF92B3
S11321E0BF92CF92DF92EF92FF920F931F93282F0B
S11321F033278BE090E0289FF001299FF00D389F52
S1132200F00D1124E85BFE4F82819381A481B58196
S11322100097A105B10569F080819181880F991F0C
S1132220918380838150944020F080E094E09183F6
S113223080838BE090E0289F5001299FB00C389F49
S1132240B00C112488E491E0A80EB91EF501868132
S11322509781A085B18582839383A483B583C0804D
S1132260D180EE24FF2469E0CC0CDD1CEE1CFF1CA5
S11322706A95D1F70E94F202DC01CB01F5010081DD
S11322801181B801762F6627770F0E94A82EAA27FE
S1132290BB278C0D9D1DAE1DBF1D222733274AE091
S11322A0000F111F221F331F4A95D1F7081B190B6A
S11322B02A0B3B0B068317832087318722813381C6
S11322C044815581280F391F4A1F5B1F22833383A2
S11322D0448355831F910F91FF90EF90DF90CF902F
S11322E0BF90AF900895EF92FF920F931F93CF93F7
S11322F0DF93182F7B01042F8FB7F894C82FDD27A5
S113230060E080E00E94EC03882321F0CFBF80E0EE
S113231090E014C0CFBF1064812F99279093990245
S1132320809398020E942104182F402F5527B7014B
S113233080E090E00E949B04812F9927DF91CF9148
S11323401F910F91FF90EF900895C09860914601FE
S11323507091470141E08FE30E947311089582E078
S113236090E09093C6018093C50181E080933B0285
S113237020E030E080910201843011F421E030E06B
S1132380232B29F484E00E94700E882319F40E9400
S1132390A511089584E00E940F0F08951F920F92D3
S11323A00FB60F9211242F933F934F935F936F9324
S11323B07F938F939F93AF93BF93EF93FF938091FA
S11323C0C5019091C601019749F482E090E0909391
S11323D0C6018093C5010E94AF1105C08091E2013E
S11323E08F5F8093E201FF91EF91BF91AF919F9135
S11323F08F917F916F915F914F913F912F910F90AA
S11324000FBE0F901F9018951F9380911E01882373
S113241009F04BC0109102011F3F09F046C060E073
S11324200E94EC03882309F440C081E08093CF0626
S11324308091A8018823E1F11092CF0685E090E015
S113244045C0923069F5C09A8091030120E030E0E4
S11324508F3F11F421E030E0232BE9F410930501C0
S11324608F3F19F42FEF30E00DC0282F3327F901E7
S1132470E657FD4F8081809303018F3F11F4109341
S1132480040110832093E30181E080931F0188E01D
S11324900E94B80105C01093050110921F0111C0DC
S11324A080911F01882369F00FC081E090E00EC085
S11324B08091050190911F01882319F2923021F037
S11324C0EFCF80E00E94030480E090E01F91089524
S11324D01F93CF93DF939FB7F894C92FDD271C2F49
S11324E090910201981721F0CFBF81E090E03AC0AB
S11324F08FEF8093020130911E013323F1F48FB7E3
S1132500F8949927109250048FBF0E940412CFBFF1
S113251011C02093020181E090E002C0880F991F4E
S11325204A95E2F78095382330931E0186E00E9495
S1132530B8011FBF80E090E015C080E065E0E32FA4
S1132540FF270E949C2E292F492F5527CF01042EA7
S113255002C0959587950A94E2F780FDDACF822F21
S11325608F5FEFCFDF91CF911F91089583E00E9499
S11325706812992708951F93CF93DF938FB7F89428
S1132580C82FDD271C2F8091C5019091C601892B8E
S113259029F484E00E946812CFBF1EC010923B024F
S11325A08091E201882311F0B79904C00E9908C004
S11325B0882319F081508093E2010E94AF110BC06F
S11325C081E090E09093C6018093C5011092E201EE
S11325D084E00E9468121FBFDF91CF911F9108957C
S11325E0FF920F931F93CF93DF93F82E8B018FB736
S11325F0F894C82FDD2760E080E00E94EC03882374
S113260021F0CFBF80E090E00CC0CFBF8F2D0E949F
S11326102104812F99270E942104802F0E942104E4
S11326209927DF91CF911F910F91FF9008951F93E8
S11326301FB7F8948091E101882319F460E070E0F9
S113264009C060E080919507882309F461E081E086
S11326506827772780917702882319F480E090E037
S11326600AC090E080915D04882309F491E081E040
S11326709827892F9927762F6627770F770F770F5B
S1132680F4E0880F991FFA95E1F7826E9262682B45
S1132690792B81E10E94F012812F99278FBF1F911E
S11326A008958FB7F894992760915E048FBF85E0F1
S11326B0689FB0011124625D7E4F706488E10E94BE
S11326C0F0120895EF92FF921F93CF93DF93E0905F
S11326D07802F0907902F70182A59927182F8823B0
S11326E009F41FE1C0988091E001811749F0612F3E
S11326F077276F717070606E706885E10E94F012C8
S11327001093E001F70110818FB7F894C82FDD27EB
S113271060E080E00E94EC03882311F0CFBF12C078
S1132720CFBF8EE390E090939902809398028EE35A
S11327300E9421041150412F552760E070E0C70129
S11327400E949B04DF91CF911F91FF90EF90089519
S1132750FF920F931F93CF93DF93EC01F62E61E06A
S113276082E00E94D203882319F085E090E069C0DA
S11327708091D0068F5F8093D00681508B838FB772
S1132780F894082F112762E081E00E94EC0388236B
S113279029F40FBF0E94BC0481E052C08FB7F894A3
S11327A0992724E0209351048FBFD093A502C093AE
S11327B0A4020FBF8DE0F80EFE01F19289819927E2
S11327C080729070898311828981992781649868C5
S11327D08983892F992781831CA618A619A619AA6B
S11327E018AA1FA680E88EA761E060935404409164
S11327F0A4025091A5028FB7F894282F3327809113
S11328002001909121018830910511F0019711F078
S11328102FBF15C082E090E09093210180932001A6
S113282060939F0750937902409378021092890134
S11328302FBF0E946C0F882311F40E94621380E062
S11328409927DF91CF911F910F91FF900895FA017D
S1132850422F2D3118F082E090E00895838766833B
S1132860872F992787832FB7F89433278091750290
S1132870909176022FBF8483892F992785832FB760
S1132880F894332780910601909107012FBF808728
S1132890892F9927818780910901882369F01092F3
S11328A009018FE38287642FCF010E94A81399271F
S11328B0282F8823A9F417C0842F99279093A10265
S11328C08093A002F0932501E09324018CE00E9400
S11328D0B80180910901882349F489E090E00895C2
S11328E08FEF80930901822F9927089510927E0219
S11328F080E090E008951F93809113019927019639
S113290064E070E00E94BC2E682F8093130110E0F5
S1132910462F5527FA01EE0FFF1FEE54FD4FA081FD
S1132920B181109799F0E62FE695E695E695FF2795
S1132930EE56F84F808199279A012770307002C0B3
S1132940959587952A95E2F780FF0DC0CA010196F7
S113295064E070E00E94BC2E682F1F5F1430C1F643
S11329601093130119C0609313016430A8F42C91DF
S11329702D503327FD0167817727762F66278681BF
S11329809927682B792BAD0183850E94271488230E
S113299019F084E10E94B8011F910895CF93DF9349
S11329A0582FFB01843018F081E090E033C0C82F29
S11329B0DD27CC0FDD1FCE54DD4F88819981892B13
S11329C019F085E090E026C079836883435F4083F3
S11329D04D5080911301843018F480E090E01AC0C7
S11329E0838567817727762F662726813327622B95
S11329F0732B50931301242FAF010E94271499279E
S1132A00282F882329F084E08093130119821882E7
S1132A10822F9927DF91CF910895AF92BF92CF92E1
S1132A20DF92EF92FF920F931F93BC0181E080939A
S1132A303A0260936201872F9927809361016A3279
S1132A40710521F0AA24BB24650108C0A0903801B7
S1132A50B0903901C0903A01D0903B01A092660138
S1132A6011270D2DFC2CEB2CE092650196014427D7
S1132A705527209364018D2D9927AA27BB27E1E6CA
S1132A80F1E08283FF2400271127102F0F2DFE2C45
S1132A90EE24B82FAA2799278827332744275527B8
S1132AA0A90133272227822B932BA42BB52B2A2D64
S1132AB0332744275527822B932BA42BB52BE82AA5
S1132AC0F92A0A2B1B2BE114F1040105110511F459
S1132AD010E010C06A32710521F418E065E574E075
S1132AE003C010E060E070E0412F552787E691E0D5
S1132AF00E946D2E8FEF80935B0180935C0180E6D2
S1132B00809360011A5F412F65E571E080E00E94C7
S1132B10CE141F910F91FF90EF90DF90CF90BF9054
S1132B20AF9008958FB7F8942091C00220FD02C0A1
S1132B3020E004C02E7F2093C00221E099278FBF9C
S1132B40222379F080919F01882341F080913A02F9
S1132B50882321F48AE290E00E940D1586E10E9408
S1132B60B80108958F929F92AF92BF92CF92DF9255
S1132B70EF92FF920F931F93CF93DF9380914401C1
S1132B80882309F0B8C0E0918802F091890210828C
S1132B908091EF069091F006E0918802F09189020D
S1132BA08283892F9927818380919001882329F03A
S1132BB08091F1069091F20620C08091EF069091E9
S1132BC0F006C091F106D091F2062FEF8F3F9207E5
S1132BD081F4E0918802F0918902C4838D2F9927B2
S1132BE08383E0918802F0918902808180688083E8
S1132BF00CC00E94BF028C0F9D1FE0918802F091CF
S1132C0089028483892F9927838399E4E92E92E0AA
S1132C10F92E68E0C7010C970E94C6038C010B5F74
S1132C201F4FAA2440E0882499248BE0C82ED12C7D
S1132C30B3E0BB2E8091410199270196880D991D1F
S1132C406AE070E00E94BC2E9C0199278C9DD00103
S1132C508D9DB00D9C9DB00D1124AF53BD4FED0162
S1132C608D81992780FF11C081FF0FC08D919C91A8
S1132C704B9DF0011124E00FF11F8183892F9927C7
S1132C8080838E8182834F5FA22EE9E08E169104A9
S1132C9029F00894811C911C473060F2A0924101F4
S1132CA0809140018F5F809340018150E7018983C7
S1132CB0842F8F70809349028FEF80934302809317
S1132CC0440280E78093480283E0489FC0011124B6
S1132CD0895F482F55276DE372E083E00E94CE148C
S1132CE09927882321F481E08093440104C084302F
S1132CF011F410924201DF91CF911F910F91FF9037
S1132D00EF90DF90CF90BF90AF909F908F900895F9
S1132D10CF92DF92EF92FF920F931F93CF93DF93A3
S1132D208C01F62E6A01E22E8FB7F894C82FDD27A6
S1132D3060E080E00E94EC03882321F0CFBF80E0B4
S1132D4090E01EC0CFBF0F0D111D802F80680E9420
S1132D502104F82E16950795802F807C0E9421046B
S1132D600E2D0AC0EE2DFF27E01BF109EC0DFD1D11
S1132D7080810E94210401500023A1F78F2D9927FF
S1132D80DF91CF911F910F91FF90EF90DF90CF9043
S1132D900895CF93DF93CDB7DEB724970FB6F89499
S1132DA0DEBF0FBECDBF8FB7F8949927209175026F
S1132DB0309176022983232F33272A83209190028E
S1132DC0309191022B83232F33272C838FBF24E050
S1132DD0AE014F5F5F4F60E088E691E00E94881685
S1132DE024960FB6F894DEBF0FBECDBFDF91CF910E
S1132DF008951F938FB7F894282F332780911D01CE
S1132E00882311F02FBF30C02FBF80B39927E6E08D
S1132E1096958795EA95E1F7182F11709091940291
S1132E20809195028917D9F01917C9F484E090E0CC
S1132E3090931C0180931B018FB7F894992721E08C
S1132E4020931D018FBF60E070E08DE10E94F012BD
S1132E500E94C916C09AC09880E00E94B8011093DD
S1132E60950285E00E94B8011F9108951F93CF93A6
S1132E70DF93182F8FB7F894C82FDD2760E080E028
S1132E800E94EC03882321F0CFBF80E090E005C0CE
S1132E90CFBF812F0E9421049927DF91CF911F91E9
S1132EA0089583E00E9436179927089589E00E94C7
S1132EB03617992708950E944308C09AC09888E05D
S1132EC00E94361788E00E943617C09A84E00E9458
S1132ED068120E94BB1208951F93182F81E090E09E
S1132EE090932101809320011092A8010E94041262
S1132EF08FB7F894992710931A018FBF82E00E942C
S1132F00B8011F910895AF92BF92CF92DF92EF92D2
S1132F100F931F935B016C010E949F03AB01BC01E3
S1132F20F1E0EF2E9601850184E00E9480031F9159
S1132F300F91EF90DF90CF90BF90AF900895CF9214
S1132F40DF92EF92FF920F931F936C017B010E941B
S1132F50F202DC01CB01B6010E94A82EE80EF91E94
S1132F6000271127C801B7010E9483171F910F91F1
S1132F70FF90EF90DF90CF9008950F931F93CF931E
S1132F80DF93EC01E0913D01FF27EE0FFF1FEF52AD
S1132F90F94F00811181662329F06CE170E08CE126
S1132FA090E02FC080913C0183FF3DC08CA5882315
S1132FB0D1F58F819927982F88272E813327822B4B
S1132FC0932B0E94A702982F8F3F71F08BE0989F5C
S1132FD0F0011124EF53FD4F82858F5F8287853086
S1132FE018F0CF010E94BA0588E10E94B801F801E7
S1132FF0838181508383882339F067E070E087E020
S113300090E00E949F173FC00E94370580913C01C9
S11330108F7E80933C0167E070E087E090E00E943F
S11330209F1740E02CC00E94370580913C018F7EA1
S113303080933C0167E070E087E090E00E949F1776
S11330408F819927982F88272E813327822B932BC2
S11330500E94A702982F8F3F89F08BE0989FF00180
S11330601124EF53FD4F81858F5F818782858F5FA8
S11330708287853018F0CF010E94BA0541E0BE0175
S1133080C8010E949D0DDF91CF911F910F9108956A
S1133090282FCB01213039F0213028F0223031F0B3
S11330A0233089F407C010923A020895642F0E94D5
S11330B0BD1708956D53724031F480914401882303
S11330C011F0109244010895EF92FF920F931F9311
S11330D0E82E8B01F42EE82FFF27EE0FFF1FEE548E
S11330E0FD4F118210820E947B144F2DB8018E2D4A
S11330F00E9448181F910F91FF90EF9008950F932D
S11331001F93CF93DF93042F109113011430A0F475
S1133110E12FFF27EE0FFF1FEE54FD4FC081D18139
S1133120C617D70749F4118210820E947B14402FDE
S1133130BE01812F0E944818DF91CF911F910F91FA
S11331400895CF93DF93C0912401D091250160911C
S1133150A0028FE38A87CE010E94A813482F552727
S1133160442351F08FEF8093090160912401709101
S113317025018B850E947F18DF91CF910895FF92DE
S11331800F931F93CF93DF938FB7F8949927F09001
S11331901A018FBF63E081E00E94EC03882359F198
S11331A00FB7F8941127109221011092200187B7CC
S11331B08F7E87BF87B78F7D87BF83E00E946812A9
S11331C0C09A0FBF0FB7F89411271092C60110923E
S11331D0C5010E944308C09A89B78F7B89BF0FBF7E
S11331E010921C0110921B01DE98DD98DE9A81E09A
S11331F00E94B80107C08FB7F894992722E0209362
S113320051048FBFC091A402D091A5020E94BC04B6
S11332108A858F3341F48FEF809309014F2DBE01CE
S11332208B850E947F18DF91CF911F910F91FF90A2
S11332300895CF92DF92FF920F931F93CF93DF9362
S1133240CDB7DEB722970FB6F894DEBF0FBECDBF61
S113325080913C0184FDBAC090E080913F018823B5
S113326009F491E0992309F0B1C080919001882379
S113327059F420E08091EF069091F0068F5F9F4F04
S113328009F021E0222331F0CE0101960E94C3040B
S1133290882339F060E177E280E090E00E948317B0
S11332A095C0E0913D01FF27EE0FFF1FEF52F94F4C
S11332B000811181D801ED91FC91F080C090EF065E
S11332C0D090F006CF010E94EE0420E090918F018F
S11332D0891708F421E0222359F00E943705F801E8
S11332E0808191810E945205C8010E9471056BC0C2
S11332F080919001D801ED91FC91882381F0A091F7
S11333009202B091930284E301900D928150E1F70F
S113331060E0F801808191810E94BD1757C08981C6
S11333209A818787892F99278687D801ED91FC9107
S1133330119784858F7384874D915C91DA0111967E
S1133340FD0121813327322F2227FA018181992718
S11333508062282B392B2183232F3327FD012183DE
S113336080913C01886080933C0180FF0BC0D801B0
S1133370ED91FC9184858064848780913C018E7FEB
S113338080933C01D801ED91FC91C6828D2D992743
S1133390878381E78387B3EFFB0E4F2D5527BF014A
S11333A082E00E94CE149927882331F480913C0155
S11333B0806180933C010AC0823041F4D801ED91D0
S11333C0FC9189E2808387E10E94B80122960FB6BE
S11333D0F894DEBF0FBECDBFDF91CF911F910F9147
S11333E0FF90DF90CF900895AF92BF92CF92DF927B
S11333F0EF92FF920F931F930E949F037B018C0116
S11334006091390370913A0380913B0390913C039E
S1133410A0904A01B0904B01C0904C01D0904D0156
S1133420A114B104C104D10409F44EC0EFB7F89457
S11334302091FC0320FD36C0A8019701261B370B01
S1133440480B590B2A153B054C055D05C8F4A21A17
S1133450B30AC40AD50A80914A0190914B01A09104
S11334604C01B0914D01821B930BA40BB50B8093BF
S11334704A0190934B01A0934C01B0934D0115C0A8
S113348081E090E0A0E0B0E080934A0190934B018A
S1133490A0934C01B0934D0111E0A12EB12CC12C8D
S11334A0D12C03C02E7F2093FC038E2F99278FBF2E
S11334B00E949F03AB01BC01B1E0EB2E9601850194
S11334C081E00E94800305C0809141038D7F809339
S11334D041031F910F91FF90EF90DF90CF90BF9029
S11334E0AF900895FF920F931F93CF93DF93F82E1D
S11334F0282F33278BE090E0289FE001299FD00DEF
S1133500389FD00D1124C85BDE4F81E090E0998391
S113351088831A868A819B81AC81BD810097A1052D
S1133520B105A1F00FB7F8941127C9010E94D10584
S11335300FBF1A821B821C821D821E821F82188664
S113354019868F2D0E94EF100E94F419DF91CF91FC
S11335501F910F91FF9008958A9719F480E00E94BB
S1133560721A0895DF92EF92FF920F931F930FB791
S1133570F894112781E00E94360921E0E22EF12C13
S1133580F0922101E0922001109222011092A801F0
S11335901092E0010FBF0FB7F89411270E9443085F
S11335A0F092C601E092C50110923B0289B78F7B6D
S11335B089BF80E488BF8AB780628ABF8AB78F7E5A
S11335C08ABF89B7806489BF0FBF8FB7F894082F6B
S11335D0112780911B0190911C01049719F483E039
S11335E00E9436170FBF0FB7F8941127C09A80E0D6
S11335F00E9468120FBF8FB7F894992722E0209396
S113360051048FBF91E0D92ED092420180914301A1
S11336108823C1F00E94F2027B018C018FEF9FE1AD
S1133620E822F9220E949F03AB01BC0180E090E1F3
S1133630E80EF91E87012227332781E0E82E82E075
S11336400E94800380913C01846080933C0190E05F
S113365080913F01882309F491E0992319F487E1CB
S11336600E94B80180914A0190914B01A0914C01B4
S1133670B0914D010097A105B10529F510924A01B9
S113368010924B0110924C0110924D0110924E0178
S113369010924F0110925001109251011092520158
S11336A080E00E94EF100FB7F894112780E090E0BB
S11336B00E94D1050FBF0E94F41980E00E94721A83
S11336C0D0928A0103C080E00E94721A01E0F02EB9
S11336D0F0929F0180913C01826080933C01809133
S11336E043018823E1F4F092430180E890E0A0E0F4
S11336F0B0E08093150190931601A0931701B09345
S113370018010E94AD0E0E949F03AB01BC01EE2480
S113371000E010E220E030E083E00E94800340916A
S1133720EF065091F0062FB7F8943327F0929001EA
S11337308091490490914A049093F0068093EF0697
S11337401092F2061092F1062FBF4F5F5F4F19F4EB
S113375087E10E94B8011F910F91FF90EF90DF90D5
S11337600895AF92BF92CF92DF92EF92FF920F93A0
S11337701F93CF93DF935B016C01C0E0D0E0E0E3E3
S1133780F3E07C2F608561FFD8C0208131814281C4
S11337905381E480F58006811781D601C501821B1F
S11337A0930BA40BB50B8E159F05A007B10708F466
S11337B0C4C060FF03C06D7F608708C02E0D3F1D2D
S11337C0401F511F2083318342835383723009F495
S11337D042C0733020F4713009F0B5C007C07330B3
S11337E009F498C0743009F0AEC09EC020913D0326
S11337F030913E0340913F035091400380914A0130
S113380090914B01A0914C01B0914D010097A105FD
S1133810B105F1F082179307A407B507C9F48091A5
S11338205201882361F42FB7F89433278091C002A2
S113383081608093C0022FBF86E10E94B80180E0BE
S113384090E00E94D10580E00E94EF101092520196
S11338500E94F41978C080914201882309F473C04E
S113386080914301882309F46EC08091E90688237E
S113387049F588E10E94B80189E10E94B801A0904D
S11338801501B0901601C0901701D09018018091D5
S1133890350290913602A0913702B0913802A81AED
S11338A0B90ACA0ADB0A81E08093E9060E949F03F1
S11338B0AB01BC01E1E0EE2E9601850182E00E949D
S11338C0800341C08091150190911601A0911701C8
S11338D0B0911801880F991FAA1FBB1F809315016F
S11338E090931601A0931701B09318018150904D45
S11338F0A740B04060F080E090EDA7E0B0E0809396
S1133900150190931601A0931701B09318010E941A
S1133910AD0E19C0809142018823A9F08091430122
S1133920882389F088E106C080913C018F7E8093D2
S11339303C0187E10E94B80106C021963996C53042
S1133940D10509F01ECF8BE00E94B801DF91CF9121
S11339501F910F91FF90EF90DF90CF90BF90AF90A9
S1133960089578941F920F920FB60F9211242F92FC
S11339703F924F925F926F927F928F929F92AF92FB
S1133980BF92CF92DF92EF92FF920F931F932F93E8
S11339903F934F935F936F937F938F939F93AF93D3
S11339A0BF93CF93DF93EF93FF93CCB5DDB580E264
S11339B086BF8FB7F894282E0E945E089E01261BAE
S11339C0370B2901662457FC6094762C460E571E4B
S11339D0681E791E80912001909121018530910506
S11339E021F0069709F0E0C0BFC086E090E0909314
S11339F021018093200131E0332E3092390210925C
S1133A00220180E00E943609E0917802F091790267
S1133A1041AABB27A72D962D852D80ABC301AA27CC
S1133A20BB2787A7872D9927AA27BB2786A7E091BD
S1133A307802F091790285A5882309F484C0608115
S1133A40655077274F01860E971EF4012081E1808F
S1133A508281A3809927AA27BB27BA2FA92F982F41
S1133A608827332744275527522F442733272227D3
S1133A70FF24002711278701FF24EE242E293F2944
S1133A80402B512BBB24CC24DD242A293B294C294F
S1133A905D29822B932BA42BB52B84199509A60998
S1133AA0B7098383292F3A2F4B2F552722839D0152
S1133AB04427552721838B2F9927AA27BB27808347
S1133AC0C09824E0A40180E090E00E948816C09A87
S1133AD0F4012081E1808281A3809927AA27BB2752
S1133AE0BA2FA92F982F8827332744275527522FD9
S1133AF0442733272227FF24002711278701FF2487
S1133B00EE242E293F29402B512BBB24CC24DD2429
S1133B102A293B294C295D29822B932BA42BB52BD5
S1133B20840D951DA61DB71D8383292F3A2F4B2F76
S1133B30552722839D014427552721838B2F9927BD
S1133B40AA27BB278083E0917802F09179028181D2
S1133B5085FF02C03092A80183E00E94681287B7F3
S1133B608F7E87BF84997AC01092390281E00E94C7
S1133B703609E0917802F0917902818185FF0FC0C6
S1133B8087E090E090932101809320010E945E08D9
S1133B9020E031E040E050E00E941B0903C080E0D7
S1133BA00E946C17849B5AC080912201882391F54E
S1133BB080913902882371F511E0109339020E9433
S1133BC0360980B320918807283098F4E091910752
S1133BD0E20FFF27E770F070EE0FFF1FEE0FFF1FDD
S1133BE0EE5CF84F40825182628273822F5F209391
S1133BF0880710932201D0939B02C0939A02849960
S1133C002DC09927F4E096958795FA95E1F7182F3A
S1133C10117001C010E0809139028130F9F41092E2
S1133C2039020E943609109222011123B9F48091BD
S1133C309A0290919B02C81BD90B2A9778F4809121
S1133C408807882319F0815080938807809178022F
S1133C5090917902009711F00E944F082FBEFF91B6
S1133C60EF91DF91CF91BF91AF919F918F917F9110
S1133C706F915F914F913F912F911F910F91FF9001
S1133C80EF90DF90CF90BF90AF909F908F907F90F8
S1133C906F905F904F903F902F900F900FBE0F90BA
S1133CA01F901895CF92DF92EF92FF920F931F937C
S1133CB0CFB6F894DD240E94F202DC01CB0166E465
S1133CC070E00E94A82E4BE0E42EF12CE80EF91EC1
S1133CD0F0929C07E0929B070E945E080027112740
S1133CE0A80197010E941B09CFBE1F910F91FF905D
S1133CF0EF90DF90CF9008951F93CF93DF938FB70A
S1133D00F894C82FDD271C2F809120019091210168
S1133D100897C9F489E00E94361783E00E9468126C
S1133D20C09A81E090E090932101809320018FB7A5
S1133D30F894992723E020931A018FBF82E00E9410
S1133D40B801CFBF30C0C09880919F07882311F07D
S1133D5085E001C084E00E94361783FD09C080E03D
S1133D600E94361783FF04C085E090E020E003C082
S1133D7083E090E021E09093210180932001C09A98
S1133D801FBF222341F01092890183E00E94681230
S1133D900E94521E08C00E945E0820E431E040E008
S1133DA050E00E941B09DF91CF911F910895EF927B
S1133DB0FF920F931F93CF93DF938B01809198020F
S1133DC09091990286FF40C18F7B8F3309F08EC199
S1133DD0C0914601D091470158815093C901809107
S1133DE0C5019091C6018530910509F443C0863020
S1133DF0910509F48AC0029709F01FC185E090E09B
S1133E009093C6018093C5014091A401852F992701
S1133E100196242F3327281739074CF1B79906C088
S1133E200E9904C0451B41504093A4014091C9011F
S1133E304A32E8F44423A1F0BE016F5F7F4F48305B
S1133E4018F047E050E007C086E090E09093C60188
S1133E508093C501552780E090E00E949B0446C1F1
S1133E6010923B02C09A84E00E946812E3C00E9450
S1133E705B173CC186E090E09093C6018093C50136
S1133E8080917702882309F439C080915D048823E6
S1133E90A9F5898185FF32C08F814E812FB7F894AF
S1133EA0332760919002709191022FBF9927982F28
S1133EB088275527842B952B8617970759F08F81D0
S1133EC02E819927982F88273327822B932B8F5F56
S1133ED09F4FA1F489818770813081F4C09AC09882
S1133EE08AE00E943617C09AC0984091C901475091
S1133EF02896BE018FE30E947311F8C04091C90156
S1133F00475055272896BE01A6CFC09A8091E2015A
S1133F10882339F484E00E9468128091E2018823A6
S1133F2011F0B7990AC00E9B08C090918807992395
S1133F3021F08091C9018B3038F480914601909131
S1133F4047010E944F083DC0913001F5E09191076F
S1133F50FF27EE0FFF1FEE0FFF1FEE5CF84F2081CF
S1133F60318142815381E0914601F091470121ABB7
S1133F70BB27A52F942F832F80ABCA01AA27BB2769
S1133F8087A7252F33274427552726A780919107F4
S1133F909927019668E070E00E94BC2E80939107F7
S1133FA080918807815080938807882351F08091FD
S1133FB04601909147010E944F0810929107109278
S1133FC088078091C901FE01E80FF11D808187FFF8
S1133FD031C0012B79F169816770E0914601F0915C
S1133FE04701623019F5A0917802B09179021097D7
S1133FF009F180912001909121010797D9F4ED01F5
S11340009B8183819817B1F487B78F7E87BF908196
S113401081E08CA7E90FF11D8291319688A78081F8
S11340208F7789A780E00E946C1704C0613011F477
S113403089E02AC00E94BB1259C010923B02C09A68
S113404084E00E94681252C08E3309F04FC0C09AB7
S113405080912001909121010897C9F4C09889E0CA
S11340600E943617C09A83E00E94681281E090E0B3
S113407090932101809320018FB7F894992723E02E
S113408020931A018FBF82E00E94B8012FC0809153
S11340909F07882349F484E090E090932101809362
S11340A020010E947C1E22C083E00E94681283E0EB
S11340B090E090932101809320010E94F202DC01A0
S11340C0CB0166E371E00E94A82E5BE0E52EF12CA3
S11340D0E80EF91EF0929E01E0929D010E945E0896
S11340E000271127A80197010E941B09DF91CF9196
S11340F01F910F91FF90EF9008951F920F920FB6AA
S11341000F9211242F933F934F935F936F937F9359
S11341108F939F93AF93BF93EF93FF932FB1E0914E
S1134120C503F091C603309739F08091B0029091A5
S1134130B102E80FF91F20838091B0029091B1027F
S113414001969093B1028093B00280E00E9409042A
S113415040915301509154018091B0029091B10269
S11341608417950718F40E942D041CC06091C503A0
S11341707091C60380919607909197071092C60399
S11341801092C5031092970710929607109254014B
S1134190109253011092B1021092B0022FB120E09C
S11341A00E94D71EFF91EF91BF91AF919F918F9184
S11341B07F916F915F914F913F912F910F900FBE1F
S11341C00F901F9018952F923F924F925F926F928B
S11341D07F928F929F92AF92BF92CF92DF92EF9293
S11341E0FF920F931F93CF93DF93CDB7DEB723973F
S11341F00FB6F894DEBF0FBECDBFE82FFF27EC311A
S1134200F10510F00C94BF29EA5BFF4FEE0FFF1F7E
S11342100590F491E02D099480919207882311F080
S11342200C9454290C94BF290E94B21A0C94BF29EF
S11342308FB7F8949927109251048FBF10924201BE
S113424080913C018B7F80933C010C94BF290E9498
S1134250BF180C94BF298FB7F894282F3327122F37
S113426080919D07882319F02FBF0C94BF2981E00A
S113427080939D0780911B0190911C01049719F470
S11342800E94670F02C00E94DF011FBF0C94BF2968
S11342908FB7F894992710929D070C9452290E9485
S11342A0F9160C94BF298FB7F8949927209102012D
S11342B08FBF223009F463C0233038F4222369F01D
S11342C0213011F00C94BF2944C0233009F472C08A
S11342D0243011F00C94BF299EC0C0988FB7F89475
S11342E0082F112780911B0190911C01029771F5F1
S11342F083E090E090931C0180931B0168E170E0DF
S11343008DE10E94F01281E08093940210921D01CD
S113431080B3992736E0969587953A95E1F78170B1
S11343209070809395020E94E40181E00E94361708
S11343306FE772E08CE10E94F0120E9451130E9418
S1134340171366E57AE287E10E94F0120FBF0C941E
S1134350BF29C09886E00E9436170E9451130E941C
S113436017130E94C916C09AC0980E945117C09A88
S113437081E00E9468120E94DF010C94BF29C0985A
S11343808FB7F894082F11270E94FD03882311F09A
S11343900FBF0AC00FBF83E50E94210480E00E9482
S11343A0210480E00E942104C09A82E00E946812E5
S11343B00C94BF298FB7F8949927209120018FBFBF
S11343C0243041F0283051F0223009F50E94621364
S11343D00C94BF290E947C1E0C94BF29C0980E9493
S11343E05617C09A0E94B6122FB7F894332781E06B
S11343F090E090932101809320012FBF63E080918E
S11344007802909179020E94E9010C94BF290E94DC
S1134410B6120C94BF290E94A5110C94BF290FB7A2
S1134420F894112740915301509154016091C503B0
S11344307091C60380919607909197071092C603D6
S11344401092C50310929707109296071092540188
S1134450109253011092B1021092B00220E00E9417
S1134460D71E74CF2FB7F89433278091E30180933C
S1134470050182E080931F012FBF809105018823ED
S113448011F00C94BF29B89AC0980E94F3010C94BF
S1134490BF29A0914601B09147011C919D01210FB4
S11344A0311DF9018081881F8827881FFD0183A79A
S11344B0F90180818F77FD0181A721503040F901F6
S11344C08081FD0180A7E0914601F09147018FB7FB
S11344D0F89499272091E1018FBF2223F9F0878175
S11344E046812FB7F894332760919002709191021E
S11344F02FBF9927982F88275527842B952B86170C
S1134500970761F0878126819927982F8827332779
S1134510822B932B8F5F9F4F09F074C41D3008F4D6
S113452071C4A0904601B0904701F50181852085B2
S11345309927582F44273327422B532B63818FEF1E
S1134540809394078FB7F894782F20E030E0E1E966
S1134550F1E0808191818417950731F48281861777
S113456009F432C4209394072F5F3F4F33962430CD
S1134570310579F77FBF909194073FB7F8949F3F37
S113458021F080912301891799F420912301822F2E
S11345909927FC01EE0FFF1FE80FF91FEF56FE4F9E
S11345A05183408362832F5F2370209323010CC0C7
S11345B0892F9927FC01EE0FFF1FE80FF91FEF5613
S11345C0FE4F518340836283832F99278FBFF50168
S11345D083A5882309F412C482858F3309F00EC49D
S11345E0878146812FB7F894332760910601709133
S11345F007012FBF9927982F88275527842B952BA0
S11346008617970761F0878126819927982F882735
S11346103327822B932B8F5F9F4F09F095C6612F11
S11346206D50BCE02B2E312C2A0C3B1CF5018385EC
S11346309927833609F4BFC0843630F4803659F0A4
S1134640813609F0DBC38FC0803709F402C181379A
S113465009F0D4C3BAC2F501848525859927D82EDB
S1134660CC243327C22AD32A26857785908951887A
S1134670FAE2CF16D10421F066247724430108C05E
S1134680609038017090390180903A0190903B011C
S113469080919F01882309F4B1C3892F9927AA2700
S11346A0BB27EE24F82E092F1A2F3327442755272A
S11346B0522F442733272227872F9927AA27BB273E
S11346C0DC0199278827282B392B4A2B5B2B852D36
S11346D09927AA27BB27282B392B4A2B5B2BE22AA5
S11346E0F32A042B152B611471048104910451F4F1
S11346F0E114F1040105110549F12AE2C216D104BD
S1134700E1F414C0E114F10401051105B1F0D8017C
S1134710C70186199709A809B909181619061A06AE
S11347201B067CF43AE2C316D10439F46650A8019E
S11347309701C10106960E947E0DC6010E94AC1A23
S11347405DC3E614F7040805190559F44AE2C416D2
S1134750D10409F053C3809152018F5F80935201B9
S11347604DC3C60125C080919F01882309F446C327
S1134770F501848525859927982F88273327822B4F
S1134780932B8A9709F03AC38091380190913901AB
S1134790A0913A01B0913B010097A105B10509F43C
S11347A02DC3F10180819927982F8827822B932B81
S11347B00E940D1523C38FB7F89499272BB334E0C7
S11347C023272BBB8FBF643109F018C38091C70323
S11347D0882309F013C3A6E0B7E0F10184E1019056
S11347E00D928150E1F74AEF56E08FEF8093000776
S11347F08093FF0686E1809305078091520790918C
S11348005307892B09F0FAC2509353074093520778
S113481084E180930307809119018823B1F01092F9
S1134820190124E16FEF7FEF86E10E9411029927BD
S1134830282F882351F081E08093190110925307A7
S113484010925207222309F0D9C281E08093C70352
S1134850D5C2F501878126819927982F8827332788
S1134860822B932B8F5F9F4F09F0D8C0F501818570
S113487020859927F82EEE243327E22AF32AC7014C
S11348800E94A7028F3F21F0F501658577270CC0B0
S11348900E94C407182F8F3F51F0B7010E94EF0602
S11348A0F50165857727812F0E940007B7C081E451
S11348B00E94D607182F8F3FA1F0282F33278BE0B3
S11348C090E0289FF001299FF00D389FF00D1124EE
S11348D0EF53FD4F808191810E947B0FB701812F9F
S11348E09BC090E0F50181A58A3608F091E09923F8
S11348F009F494C0C5010E941F08182F682FC50130
S11349000E94C603DC01F5018385803709F086C067
S1134910153009F073C2FD01818122819927982FF6
S113492088273327822B932B8F5F9F4F09F41EC553
S1134930FD01838124819927582F44273327422B53
S1134940532B4115510521F18091A701082F1127FF
S11349506091EF067091F006A0E020E030E0E5EE13
S1134960F1E00EC0808191818617970731F0848130
S113497095814817590708F4A1E02F5F3F4F3896F7
S11349802017310714F4AA2369F3AA2309F4E9C40C
S113499010E0E6ECF2E08081992780FF04C083FDFB
S11349A002C081FF1F5F3B9623E0E433F20799F7CF
S11349B01123A1F10E947B03612F77270E94A82E67
S11349C000E010E0E6ECF2E09081992349F0292F11
S11349D0332723FD05C021FD03C081508F3F39F0EB
S11349E00F5F1F4F3B960A301105C1F0EDCF202F0A
S11349F00F3FA1F033278BE090E0289FF001299F1F
S1134A00F00D389FF00D1124EF53FD4F80819181FB
S1134A100E947B0FB701802F0E94EF06C5010E9400
S1134A201F08182F682FC5010E94C6037C0115308A
S1134A3009F0E4C1F5011185008560E4C5010E9417
S1134A402E088B8347010894811C911CF7018181F6
S1134A5014010894211C311CF40121819927982FF9
S1134A6088273327822B932B8F5F9F4F09F4A3C092
S1134A70812F9927D82ECC24802F9927C82AD92A68
S1134A8063E0462E512C4E0C5F1CF701838154E0E9
S1134A90652E712C6E0C7F1C24819927982F8827F2
S1134AA03327822B932B892B49F5C6010E94A70239
S1134AB08F3F09F50E94C4078F3F11F0B60119C05A
S1134AC08AE00E94D607182F8F3FA9F0282F33279A
S1134AD08BE090E0289FF001299FF00D389FF00DA6
S1134AE01124EF53FD4F808191810E947B0FB60109
S1134AF0812F0E94EF06C6010E94D802F201F080C5
S1134B00F301E080F4019080F1018080C6010E94ED
S1134B10BF028C01C6010E94FF07E82F8A3009F406
S1134B2046C08F2D9927782F66278E2D9927682BBD
S1134B30792B892D9927582F4427882D9927482B7D
S1134B40592B8091A701E817F1F40233110578F588
S1134B502FB7F8943327FF27B3E0EE0FFF1FBA9562
S1134B60E1F7EB51FE4FD182C082538342837583B8
S1134B70648381E0868317828091A7018F5F80938D
S1134B80A7012FBF14C08FB7F8949927FF27A3E07C
S1134B90EE0FFF1FAA95E1F7EB51FE4FD182C082C1
S1134BA0538342837583648321E026838FBF6B81A3
S1134BB0C6010E94BD0F60E8C5010E942E0888232B
S1134BC009F41CC10E94000F19C1F50185858F5F8E
S1134BD085876D3108F012C1C5010E94EE0420E002
S1134BE090918F01891708F421E0222309F006C16E
S1134BF020913F01822F9927B82F882309F43FC0C1
S1134C00A0913D01A20F38C0AC3010F4EA2F02C0CD
S1134C10EA2FEC50FF27EE0FFF1FEF52F94F0190E0
S1134C20F081E02D00811181F80120894189F5018D
S1134C30808961893327322F22275527242B352B4E
S1134C409927982F88277727862B972B281739079A
S1134C5099F4F8019289F5018289981769F4F801A9
S1134C609585F5018585981739F4F8019389F5013F
S1134C708389981709F4C2C0A150B15029F68091D4
S1134C809001882309F0BAC02091A302222309F4D9
S1134C9081E0882309F0B2C09091A202992309F41B
S1134CA081E0882309F0AAC0992309F4A7C0809160
S1134CB09307E82FFF27EE0FFF1FE056F84F008100
S1134CC011811182108291509093A2028F5F809380
S1134CD093078C3011F4109293070115110509F410
S1134CE08DC0222309F48AC080917F02E82FFF2718
S1134CF0EE0FFF1FEF5CFB4FE080F180118210820A
S1134D0021502093A3028F5F80937F028C3011F493
S1134D1010927F02E114F10409F470C084E3F701F6
S1134D2011928A95E9F728E230E0A20EB31E8CE0D6
S1134D30F50111928A95E9F728ED3FEFA20EB31E13
S1134D40F801B182A0828FEF82838EE183839091F8
S1134D503F019C3008F0FEC280913E01E82FFF27FE
S1134D60EE0FFF1FEF52F94F118300838F5F809383
S1134D703E018C3011F410923E019F5F90933F01ED
S1134D80CE0101960E94C3048823B1F4F5018685FF
S1134D9027859927982F88273327822B932B2981BE
S1134DA03A812817390740F00E94000F6CE170E047
S1134DB08CE190E00E949F1780915C0381FD02C00A
S1134DC00E94F80157011AC07FBF18C0F501118570
S1134DD0008584858078803811F40E94000FF501E5
S1134DE0848560E086FD61E0812F9927982F8827CC
S1134DF0202F3327822B932B0E94BD0FB0924701A3
S1134E00A09246018FB7F894992710923B028FBF66
S1134E100E94BB12B4C28091DF01882361F5209106
S1134E202E0730912F074091300750913107EFB78B
S1134E30F894FF2760914C0470914D0480914E04C6
S1134E4090914F04E090A001F090A1010091A20183
S1134E501091A3016E0D7F1D801F911FEFBF209342
S1134E602E0730932F074093300750933107109249
S1134E70DF010E94D5060E949F0343C00E949F0346
S1134E805B016C018FB7F89499271092A7028FBF2A
S1134E90EFEFEE2EEFEFFE2EEFEF0E2FEFE71E2FCC
S1134EA060E0E0E3F3E0808581FF1CC080819181B4
S1134EB0A281B381A6019501281B390B4A0B5B0B18
S1134EC0DA01C9012481358146815781281B390BB8
S1134ED04A0B5B0B2E153F05400751071CF4790163
S1134EE08A0161E0399633E0ED35F307E1F6662394
S1134EF009F445C21E141F04100611062CF0C60145
S1134F00B5010E94B11B3BC2E0922E07F0922F071D
S1134F10009330071093310781E08093DF01A801EB
S1134F209701C601B5010E94D50629C290917E025F
S1134F3080910901981709F422C2909309019923D9
S1134F4019F40E94A1181BC28FEF8093090117C2A4
S1134F508FB7F89410929A0720912E0440E02830DD
S1134F6009F441E030E0293009F431E0442311F43C
S1134F70332351F010922E04E0912F03FF27EE0FFC
S1134F80FF1FE456FD4F108299278FBF442311F46D
S1134F90332319F1809190078F5F8093900780915C
S1134FA08B028334A1F49FB7F8942091A9028091D5
S1134FB0A802821741F0822F8F5F8093A902863066
S1134FC010F01092A902892F99278FBF0AC0A0E080
S1134FD0442309F4A1E071E006C0222311F010E09B
S1134FE069C0A0E070E08FB7F8949927209126015A
S1134FF08FBF222341F08FB7F89499272AE020939A
S11350002E048FBF43C08FB7F894992760919C02F8
S113501040919E028FBF8FB7F894282F332750E01A
S11350209091A8028091A902981709F451E02FBF2A
S1135030552349F5662339F55FB7F89482E08093E8
S11350409C028FB7F894282F332740E09091A80250
S11350508091A902981709F441E02FBF442311F06D
S113506080E006C0E091A902FF27E855FD4F828148
S113507080939D02852F99278FBF83E480938B02B1
S113508010922F030BC04150423010F010E007C0C3
S113509085E480938B0281E080932F0311E07723D2
S11350A049F08FB7F8949927A0932F018FBF81E11E
S11350B00E94B80180912E048A3019F40E94EA05F6
S11350C05EC1112309F45BC12FB7F8943327109202
S11350D0B9071092B8071092830281E080932E04DE
S11350E02FBF0E944206882309F449C18FB7F89460
S11350F0992729E020932E048FBF0E94FD013FC110
S1135100569857981092FD0310927302539A549A2A
S1135110579A35C180E10E94B80131C1539854981F
S11351202EC110922C0110922B018FB7F89499275D
S113513040912F018FBF80913001811143E0209174
S1135140290130912A0180913101882309F017C186
S113515080911901882309F012C16091520770915E
S113516053076217730709F00AC1EBC08FB7F894AD
S11351709927209133010091340110913501309128
S11351803601F090A6018FBF222309F075C0932F3A
S11351909C50F8018385863309F06EC0983009F07D
S11351A06BC02FB7F89433278BB391E089278BBB5F
S11351B02FBF80918A01882309F45EC0A5E5B4E07D
S11351C03C9688E001900D928150E1F7809138017E
S11351D090913901A0913A01B0913B01CD01AA27E8
S11351E0BB270196A11DB11D80933801909339010D
S11351F0A0933A01B0933B010097A105B10561F476
S113520081E090E0A0E0B0E0809338019093390110
S1135210A0933A01B0933B018091380190913901F8
S1135220A0913A01B0913B01DC0199278827209194
S113523000013091010144275527820F931FA41FB9
S1135240B51F8093380190933901A0933A01B0932C
S11352503B0180919F01882361F080913A02882369
S113526041F48AE290E00E940D158AE290E00E94E7
S1135270AC1A85E10E94B8018FB7F894EF2DFF278F
S1135280EE0FFF1FE35FFE4F118300832091270180
S1135290FF2011F02B7F01C02D7F20932701109256
S11352A0320199278FBF6BC031E0D32EEE24FF2447
S11352B002EB12E0909192078D2D892371F0F80191
S11352C060817181118210828D2D80959823909335
S11352D0920743E08E2D0E9448180894E11CF11CAB
S11352E00E5F1F4FF8E0EF16F10409F448C0DD0C1F
S11352F0E1CF80911301E82FFF27EE0FFF1FEE543B
S1135300FD4F6081718141E00E94641838C00E94A1
S1135310921535C00E94191932C00E94ED0F2FC09A
S11353200E94B2152CC00E948C0129C080911901E1
S1135330E82FFF27EE0FFF1FEE5AF84F60817181AF
S113534041E00E9461021BC0F5018385813709F0A9
S113535055CD3CCDC7010E945205C8010E9471057C
S11353604DCD65E0C5010E94C60307C0C5010E947A
S11353701F08682FC5010E94C6037C015BCB2396DE
S11353800FB6F894DEBF0FBECDBFDF91CF911F9152
S11353900F91FF90EF90DF90CF90BF90AF909F90D0
S11353A08F907F906F905F904F903F902F900895D3
S11353B0809189078F3FB1F0282F3327F901E755F2
S11353C0FE4F8081809389078F3F11F480939E075D
S11353D08FEF80832F3F31F0822F0E94E32081E002
S11353E090E0089580E090E00895CFEFD0E1DEBF33
S11353F0CDBFFFB6F8944CE150E06FEF70E089EA5E
S113540091E00E94762E8FEF8093890780939E0708
S113541081E08EBD88E080BF83E083BF8CB59DB5FD
S11354204AE72CB53DB52817390708F44150442301
S113543011F0C901F6CF92B782B78917E9F32CB5F9
S11354403DB592B782B78917E9F38CB59DB5821B38
S1135450930B409665E0969587956A95E1F790934E
S11354608B0780938A0713BE83B78EBD8EB580BF2A
S113547012BE1DBC1CBC8FEF86BF86B780937C0018
S113548080B7992787709070892BD1F7D29AD19AD7
S1135490D09ADA9AD99AD89A15BA8FEF84BBD4984D
S11354A0DC98109289001092880080917D008460BD
S11354B080937D0080918A00887F826080938A0037
S11354C01DBC1CBC87B7846087BF8EB5887F846091
S11354D08EBD80E285BF0E94D8298823E1F710920F
S11354E0A60210928F01E0EAF7E08EEF93E0819339
S11354F09193049627E0E83BF207C9F78CE0809388
S1135500A20210929307E1E3F4E08FE594E0819323
S11355109193C49624E0E934F207C9F78CE08093B0
S1135520A30210927F021092420110924301109242
S11355308C0710928D0710928E0710928F0710928D
S113554090018FEF9FEF9093F0068093EF061092F7
S1135550F2061092F1061092F3061092F4061092DD
S1135560A7018FB7F894992720910601309107017C
S11355708FBF30934A04209349046AE18DE392E09B
S11355800E94C603909389028093880288EC93E07A
S113559090939302809392028FB7F8949927209165
S11355A00601309107018FBF3093C8012093C701D2
S11355B01092A501E6ECF2E010823B9683E0E4331E
S11355C0F807D1F780E094E0909349018093480173
S11355D01092520110924A0110924B0110924C0108
S11355E010924D0110924E0110924F0110925001F1
S11355F0109251011092C0021092FC0312E006E0D6
S113560060918A0770918B07882799275CE0660F61
S1135610771F881F991F5A95D1F720E031EE40E09B
S113562050E00E94CF2E2150304029B9832F992772
S1135630809390001BB9009395001AB820939900A9
S11356408093980010939B0000939D0010929A0001
S113565084E490E09093F6068093F50610929C0201
S113566010929E0210922E041092830210928B02CA
S1135670109290071092B9071092B80710929A07E7
S113568010922F031092EB061092EA0610923C023D
S1135690109230041092F906109274021092BD0216
S11356A01092BC021092A9021092A8028FEF80936C
S11356B0E401E1E9F1E08FEF9FEF918380831282AF
S11356C0339621E0ED39F207C1F70E94F2026093AC
S11356D0D00680910001909101010196AA27BB2771
S11356E080937A0290937B02A0937C02B0937D0214
S11356F080B7886080BF8BE083BF86EE81BF87B7A9
S1135700826087BF0E94520684E597E09093470128
S1135710809346018E98B89A8C988FEF80938A0272
S11357201092500410925104109252041092530497
S1135730B89AD69AD59A8FB7F894992720910601EA
S1135740309107018FBF3093910220939002809192
S11357500801992790937602809375028FE18093D4
S11357604B048AE180935E0481E08093E10110920E
S113577095078093770210925D040E94D8298823AC
S1135780E1F78F2D99278FBF78948EE00E94B8019E
S113579061E081E00E94D2038823E9F48FB7F89492
S11357A0282F332780911B0190911C01892B11F024
S11357B02FBF1BC081E090E090931C0180931B01DC
S11357C02FBFDD9A0E945E0824E130E040E050E003
S11357D00E941B090AC062E081E00E94EC03882356
S11357E021F461E081E00E94EC038FB7F894482F24
S11357F0552749C087B7992783709070892B19F46E
S1135800E5E0F0E013C080B7992787709070892B8A
S1135810D1F781B792B7891B8C3030F082B7853FBE
S113582018F4E3E0F0E002C0E2E0F0E087B7887B40
S1135830C1F480917D008B7FA1F46E9912C08AB16E
S113584090919A00892B807C61F48091740082FD90
S113585008C0379B03C081E090E005C085E090E07C
S113586002C080E090E025B78E1708F4E82FFF27E8
S1135870EC53FD4FC895E02D237E2062E22BE5BF5B
S113588078948895F894809189078F3F09F4B2CF72
S1135890282F3327F901E755FE4F8081809389072C
S11358A08F3F11F480939E078FEF80832F3F09F47D
S11358B0A1CF4FBF822F0E94E32097CF78941F92ED
S11358C00F920FB60F9211241F932F933F934F9370
S11358D05F936F937F938F939F93AF93BF93EF9354
S11358E0FF9387B78F7E87BF78941FB7F894809112
S11358F0840290918502A0918602B091870200975C
S1135900A105B10509F051C08091200190912101B8
S11359108530910561F18630910530F4833091052D
S113592049F0049781F51AC087309105F1F0089782
S113593051F514C0869B0FC084E090E09093210140
S1135940809320010E945E0827E030E040E050E0B0
S11359500E941B0918C00E94521E15C00E946C0FA1
S1135960882389F40E947C1E0EC080E00AC089E06E
S11359700E94361781E00E94360983E00E94681273
S113598087E00E946C1780911B0190911C01019784
S113599071F482E090E090931C0180931B01DE98E7
S11359A0DE9A80E00E940F0F02C00E947B08812FC4
S11359B099278FBFFF91EF91BF91AF919F918F91E5
S11359C07F916F915F914F913F912F911F910F9014
S11359D00FBE0F901F901895ACE2B0E0E2EFFCE22E
S11359E00C94F12E222E332E442E552E662E772E15
S11359F0882E992EFE013196A8E01192AA95E9F716
S1135A0029823A824B825C826D827E828F82988662
S1135A10FE013996B8E01192BA95E9F7A986BA86DB
S1135A20CB86DC86ED86FE860F87188B89819A816A
S1135A30AB81BC8189A79AA7ABA7BCA77C018D01C8
S1135A408FEF9FEFA0E0B0E0E822F9220A231B23A6
S1135A5089A59AA5ABA5BCA51D0144245524898517
S1135A609A85AB85BC858DA39EA3AFA3B8A75C0123
S1135A706D018FEF9FEFA0E0B0E0A822B922CA2207
S1135A80DB228DA19EA1AFA1B8A53D018824992454
S1135A90C801B701A60195010E947D2E69A37AA3CE
S1135AA08BA39CA3C801B701A40193010E947D2E7E
S1135AB07B018C01C201B101A60195010E947D2EDA
S1135AC05B016C01C201B101A40193010E947D2E0E
S1135AD03B014C01EA0CFB1C0C1D1D1D89A19AA164
S1135AE0ABA1BCA19D01442755272E0D3F1D401F8E
S1135AF0511F2A153B054C055D0540F480E090E0FC
S1135B00A1E0B0E0680E791E8A1E9B1ECA01AA2776
S1135B10BB27860D971DA81DB91D8D8F9E8FAF8F36
S1135B20B8A3A9013327222789A19AA1ABA1BCA1BB
S1135B30A070B070280F391F4A1F5B1F298F3A8F3E
S1135B404B8F5C8FA98CBA8CCB8CDC8CED8CFE8C4F
S1135B500F8D18A1FE01719698E011929A95E9F7BC
S1135B60ED8AFE8A0F8B188F2D813E814F815885D7
S1135B706DA17EA18FA198A50E947D2E3B014C01B1
S1135B802D853E854F85588969A57AA58BA59CA549
S1135B900E947D2E2D893E894F89588D260F371FEF
S1135BA0481F591F260D371D481D591D2D8B3E8B2F
S1135BB04F8B588F6D887E888F88988C2A2D3B2D2B
S1135BC04C2D5D2D662D772D882D992DE2E1AC9617
S1135BD00C940D2FA0E1B0E0E0EFFDE20C94F12E67
S1135BE0222E332E442E552E662E772E882E992E55
S1135BF0002309F466C088E0FE01319611928A956B
S1135C00E9F729833A834B835C836D837E838F8298
S1135C109887E0E2E01B1E16CCF52D813E814F8172
S1135C205885602F772767FD7095DA01C901062E24
S1135C3004C0B695A795979587950A94D2F78D8752
S1135C409E87AF87B88B04C0220F331F441F551F94
S1135C50EA95D2F789819A81AB81BC8104C0B6955B
S1135C60A795979587956A95D2F7282B392B4A2BB8
S1135C705B2B29873A874B875C8729843A844B843A
S1135C805C846D847E848F8498881BC01D861E86E8
S1135C901F86188A2E2F332727FD3095309521959E
S1135CA03F4F8D819E81AF81B88504C0B695A7957D
S1135CB0979587952A95D2F789879A87AB87BC876A
S1135CC0DCCF222D332D442D552D662D772D882D97
S1135CD0992DE2E160960C940D2FFB01DC0102C0CA
S1135CE001900D9241505040D8F70895DC0101C055
